:04000000803114280F
:100008007E1480314E01161E0A280B2812280C1E59
:100018000E280F2812288031702080317E100900A8
:10002800803116287E1040018031652840019801F2
:1000380099019A013B309200F0309300FF30940010
:1000480033307E01B800F030C300FF30CE00B90174
:10005800C401CF01BA01C501D0013730BB00F0306F
:10006800C600FF30D1003F30BC00F030C700FF3081
:10007800D200BD01BE01BF01C801C901CA01D30137
:10008800D401D50108004E010C100B140030F20009
:100098000030F30080316B208031080080315C2013
:1000A800803180311A20803180314720803108002A
:1000B800623051018D008F0191010230930092014D
:1000C8000800803152208031682880311428730854
:0A00D800F1007208F00008000800B3
:020000040001F9
:0A000E00FF3FFF3F9F3FFF3FFF3F12
:00000001FF
