:100000000C9457000C94CD090C94CD090C94CD0997
:100010000C94CD090C94CD090C94A6090C94CD092F
:100020000C94CD090C94CD090C94CD090C94CD09F8
:100030000C94CD090C94CD090C94CD090C94CD09E8
:100040000C94CD090C94CD090C94CD090C94CD09D8
:100050000C94F3050C94CD090C94B0070C94840710
:100060000C94B0090C94CD090C94CD090C94CD09D5
:100070000C94CD090C94F6060C94CD090C94CD0982
:100080000C94CD090C94CD090C94AB090C94B509D2
:100090002800280280280228120013BC2812282CCD
:1000A00080282C282E0013CC282E283080001124E4
:1000B0001FBECFEFCDBFDFE3DEBFE0E9F0E040E001
:1000C00017C0B591A59135912591059107FD0CC0FB
:1000D00095918591EF01F92FE82F05900D92A217C8
:1000E000B307D9F7FE0104C01D92A217B307E1F7C9
:1000F000ED3AF40731F70E9473080C946909F894FB
:02010000FFCF2F
:10010200AEE0B0E0E7E8F0E00C94B2084C016B011D
:1001120019821A828FEF9FEF8B839C831D821E822E
:100122004F83588729873A87A12CB12CD6016D902D
:100132007C90F301EA0DFB1D808181110FC0D60175
:10014200ED93FC938081853209F0D3C13F01BFEF6B
:100152006B1A7B0AF6016082718219C0853279F3CB
:10016200B401082E000C990B0E94A7054FEFA41AA8
:10017200B40ADCCF8C32ACF08D32F9F489819A81E9
:10018200816089839A833196D601ED93FC93D601DF
:10019200ED91FC9180818B3269F789819A8184602B
:1001A200F0CF803221F489819A818860EACF83324C
:1001B20051F489819A818061E4CF803321F489816D
:1001C2009A818260DECFB701C6010E9456078D83F5
:1001D2009E8397FF0BC029813A81B1E02B272983A7
:1001E2003A839195819591098D839E8389819A8124
:1001F20080FF03C08D7F89839A83D601ED91FC91A4
:10020200119780818E3249F43196ED93FC93B701B8
:10021200C6010E9456078B839C83C6010E94530825
:10022200582ED601ED91FC918081082E000C990B7D
:100232000E949209893609F443C084F4833609F492
:1002420002C134F4853209F427C18136E1F030C1AC
:100252008436B1F188360CF4D9C02AC1803709F44A
:100262009AC03CF48E3609F4BCC08F3609F461C0E2
:100272001FC1853709F440C0883709F476C0833737
:1002820009F016C1F3C0652D70E0A701CE010B96EF
:100292000E940000892B09F426C1D601ED91FC9140
:1002A2001197CF0101968D939C932081AE01455FFA
:1002B2005F4FBE016F5F7F4FC4010E94000010C1FB
:1002C200652D70E0970141E050E0CE010B960E944F
:1002D2008104892B09F407C1F6018081918101967D
:1002E20080839183AE01455F5F4FBE016F5F7F4F99
:1002F200C4010E940F04F4C0652D70E0970140E034
:1003020050E0CE010B960E948104892B09F4EBC0C8
:10031200D6018D919C91119701968D939C93AE017C
:10032200455F5F4FBE016F5F7F4FC4010E943A0677
:10033200D7C0652D70E0970140E050E0CE010B96EA
:100342000E948104892B09F4CEC0F601808191813B
:10035200019680839183AE01455F5F4FBE016F5F5F
:100362007F4FC4010E944E05BBC0652D70E097010E
:1003720040E050E0CE010B960E948104892B09F4E3
:10038200B2C0D601ED91FC911197CF0101968D93E8
:100392009C9320811CC0970140E050E060EF70E028
:1003A200CE010B960E948104892B09F49CC0F601B0
:1003B200808191810196808391838B859C85892B95
:1003C20029F420E030E043E953E584C028E7AE0198
:1003D200455F5F4FBE016F5F7F4FC4010E947F0286
:1003E2007FC0A501400F511F652D70E09701CE011E
:1003F2000B960E940000892B09F475C0D6018D91DD
:100402009C91119701968D939C9373C0652D70E01A
:10041200A701CE010B960E940000892B09F463C04C
:10042200D601ED91FC911197CF0101968D939C938A
:100432002081AE01455F5F4FBE016F5F7F4FC401F8
:100442000E9400004DC0B0E85B124DC0F6018081F1
:100452009181019680839183D701ED91FC9111974F
:10046200CF0102968D939C93808120C0B0E85B12ED
:100472003AC0F60180819181019680839183D701F0
:10048200ED91FC911197CF0102968D939C9340813F
:10049200518120E030E01EC0B0E85B1224C0F601BA
:1004A200208131812F5F3F4F208331838B870DC0A5
:1004B20085E28B87D6016D927C9219821A821D8207
:1004C2001E828FEF9FEF8B839C8321E030E0AE0191
:1004D200455F5F4FBE016F5F7F4FC4010E940708F7
:1004E2008A0D9B1D07C0F601808191810196808350
:0C04F2009183C5012E96EFE00C94FB08EE
:1004FE00AFE0B0E0E5E8F2E00C94AF081C016B0150
:10050E0049835A832B83FB0182819381848095805A
:10051E0000811181A680B78097FD02C00D7F02C0B9
:10052E0081E090E0E981FA814080518062807380A1
:10053E009801207133272C833D83740104FF08C07A
:10054E00411451046104710419F032E0E31AF10808
:10055E00F801E870FF27EE83FF8303FF03C0F1E08D
:10056E00EF1AF108F6010084F185E02D3197EE8740
:10057E00FF87EA0DFB1D10829C012E193F0928876B
:10058E003987C801827099278A879B87EB818E2FC6
:10059E00EE0F990B9C01215431092C873D872E8536
:1005AE003F852230310530F48C819D81892B09F0F5
:1005BE0042C05CC0411451046104710461F18E8526
:1005CE009F8501978E879F87C2018F7099278A30EA
:1005DE00910514F4C09602C0895A9F4FEC85FD8593
:1005EE007A9748F49C012062215631092A3131054F
:1005FE0010F40E948909EE85FF85EA0DFB1D8083AC
:10060E00F1E0EF1AF10884E07694679457944794DA
:10061E008A95D1F7C4CF888599858E0D9F1D1816A2
:10062E0019066CF21E141F040CF0BECFEA85FB8572
:10063E00EF2B29F6B9CFE981FA8180819181A281D0
:10064E00B381892B8A2B8B2B89F0EE85FF85EA0DE2
:10065E00FB1D31972B8120838E859F8502978E8778
:10066E009F87FC01EA0DFB1D80E38083EE81FF81F5
:10067E00EF2B59F02E853F85215031092E873F876C
:10068E00F901EA0DFB1D80E28083F601408551855C
:10069E00415051092E853F85421B530BB9016A0DFE
:1006AE007B1D9401C1010E94BD069C01F101808158
:1006BE00918190FF06C0F601828193818217930784
:0C06CE000CF4C9012F96E2E10C94F8082E
:1006DA000F931F93CF93DF9340E054E0FA01108207
:1006EA0020E234E0F901108280E494E0FC011082F7
:1006FA00C0E6D4E06FE06883A0E8B4E01C9200EAA8
:10070A0014E061E0F8016083FA011482F9011482AD
:10071A00FC0114821C8214961C921497F8016483BB
:10072A00FA01108A118A128A138A148A158A168A79
:10073A00178AF901108A118A128A138A148A158A69
:10074A00168A178AFC01108A118A128A138A148A55
:10075A00158A168A178A188A198A1A8A1B8A1C8A7B
:10076A001D8A1E8A1F8A50961C92509751961C9277
:10077A00519752961C92529753961C92539754969D
:10078A001C92549755961C92559756961C925697BA
:10079A0057961C92F801108A118A128A138A148AAF
:1007AA00158A168A178AE0EEF5E011821082148201
:1007BA0015821382128281ED99E080931E2890930C
:1007CA001F2882ED99E080931C2890931D2883EDC1
:1007DA0099E080931A2890931B2884ED99E08093DE
:1007EA0018289093192885ED99E0809316289093FC
:1007FA00172886ED99E0809314289093152887EDA1
:10080A0099E08093122890931328DF91CF911F913A
:04081A000F9108959D
:10081E00A2E0B0E0E5E1F4E00C94AF083C016B011E
:10082E00FB0122813381A480B580808191818983EF
:10083E009A8386809780FA0120803180428053808F
:10084E00B201A10157FE07C044275527BA0142192C
:10085E0053096409750937FD03C08D7F89839A8317
:10086E00950157FC05C0898182FD02C083FF02C03D
:10087E0021503109CE0101967C010AE010E0C6013B
:10088E000E94E90457FC03C0298122FF0AC0019788
:10089E00F401E80FF91F57FC02C02BE209C02DE24C
:1008AE0007C023FF06C00197F401E80FF91F20E2ED
:1008BE00208309811A81F6014085518541505109E5
:1008CE00481B590BB401680F791F9501C3010E9493
:1008DE00BD069C01F3018081918190FF06C0F60157
:1008EE0082819381821793070CF4C9012296E2E16B
:0408FE000C94F80856
:10090200CF93DF93DC01F90168387105F1F05CF4F3
:100912006138710561F164387105A1F160387105C2
:1009220009F051C02FC0603C710509F441C0603F1D
:100932007105F1F1603A710509F045C0C081D181BC
:10094200CE0102968083918325C0C081D181CE01E0
:10095200029680839183452B39F04881042E000C46
:10096200550B660B770B1CC0488150E029C0C08133
:10097200D181CE01049680839183488159816A8115
:100982007B810EC0C081D181CE010296808391838A
:10099200452BA1F048815981052E000C660B770B7F
:1009A2004D935D936D937C93139781E090E00DC01E
:1009B200C081D181CE010296808391834881598181
:1009C20060E070E0EDCF80E090E0DF91CF9108959C
:1009D200A0E0B0E0EFEEF4E00C94B108DC012801F5
:1009E2001696AD90BC901797F7018081918112966F
:1009F200ED91FC9113971896CD91DC91199721975F
:100A0200F7FF02C0E1E0F0E0CA0DDB1D18826901C8
:100A1200A1E0B0E08F01021B130B4C01F2E08F2228
:100A22009924052C000C66087708CE018A199B09C7
:100A3200CA15DB0519F1411551056105710589F0EA
:100A4200CB01BA01A30192010E943108CA01A62F6B
:100A5200B72F605D6A9341E0C41AD108A901BC01B5
:100A6200E4CF98012C0D3D1D121613064CF31C14F5
:100A72001D0434F48114910419F702C080E090E05F
:100A8200AB2B31F4F701208131812F7E208331831A
:0A0A9200CDB7DEB7E0E10C94FA08DE
:100A9C00A2E0B0E0E4E5F5E00C94B3084C016B0186
:100AAC00FB012281338164807580808191818983EF
:100ABC009A83A680B78037FD03C08D7F89839A8384
:100ACC00FA014081518162817381CE0101967C01D2
:100ADC0008E010E09301C6010E94E904298124FF7B
:100AEC0006C00197F501E80FF91F20E32083298147
:100AFC0023FF06C00197F501E80FF91F20E22083C0
:100B0C0009811A81F6014085518541505109481BD4
:100B1C00590BB501680F791F9301C4010E94BD06E2
:100B2C009C01F4018081918190FF06C0F6018281C5
:100B3C009381821793070CF4C9012296EEE00C9472
:020B4C00FC08A3
:100B4E000F931F93CF93DF93DB01109719F48FEF61
:100B5E009FEF3DC02D913C91119730FF25C0169609
:100B6E004D915C91179714962D913C9115974217C4
:100B7E00530778F41296ED91FC9113978083129699
:100B8E002D913C9113972F5F3F4F12962D933C93CF
:100B9E00139716962D913C9117972F5F3F4F1696F0
:100BAE002D933C93179713C01C96ED91FC911D97B6
:100BBE00309769F2EB01092F182F0995892B39F619
:100BCE008E819F8101968E839F83812F902FDF913F
:080BDE00CF911F910F910895C2
:100BE6001F920F920FB60F9211242F933F934F939C
:100BF6005F936F937F938F939F93AF93BF93EF937F
:100C0600FF937D9B05C0E0911A28F0911B2809955A
:100C1600789B05C0E0911828F09119280995799BD1
:100C260005C0E0911628F091172809957A9B05C012
:100C3600E0911428F091152809957B9B05C0E09159
:100C46001228F091132809958FEF8FB9FF91EF9134
:100C5600BF91AF919F918F917F916F915F914F91CE
:0E0C66003F912F910F900FBE0F901F90189589
:100C7400A2E0B0E0E0E4F6E00C94B3085C016B01A0
:100C8400FB012281338184809580808191818983D5
:100C94009A836680778037FD03C08D7F89839A832A
:100CA400FA014081518162817381CE0101967C01F8
:100CB4000AE010E09401C6010E94E90409811A8146
:100CC400F6014085518541505109481B590BB30128
:100CD400680F791F9401C5010E94BD069C01F501AE
:100CE4008081918190FF06C0F601828193818217F1
:0E0CF40093070CF4C9012296EEE00C94FC0864
:100D0200A2E8B0E0E7E8F6E00C94B5085C014A011D
:100D1200CF57DF4F68837983C158D040C12CD12C83
:100D2200CF57DF4FE881F981C158D04080818823B5
:100D3200E9F07401860120E830E0AE014F5F5F4FB9
:100D4200BE016F577F4FC5010E9481008C0D9D1D12
:100D52008C159D054CF48FE490E0809300289093CD
:100D620001288FEF9FEF03C06C01DACFC601CE5787
:080D7200DF4FECE00C94FE08D9
:100D7A00A0E0B0E0E3ECF6E00C94B5086C015B018E
:100D8A007A01E901480181E08822992400FD03C023
:100D9A004217530750F0A701B501C6010E949208F5
:100DAA00EC16FD0610F0C70117C08E010E191F09B7
:100DBA000115110541F0B60180E290E00E94A705F5
:100DCA0001501109F5CF8114910429F4A701B50145
:100DDA00C6010E949208CE01CDB7DEB7ECE00C94B2
:020DEA00FE0801
:100DEC001F920F920FB60F9211242F933F934F9394
:100DFC005F936F937F938F939F93AF93BF93EF9377
:100E0C00FF93B99B05C0E0911E28F0911F2809950E
:100E1C00B89B05C0E0911C28F0911D2809958FEF17
:100E2C0087BBFF91EF91BF91AF919F918F917F9174
:100E3C006F915F914F913F912F910F900FBE0F903B
:040E4C001F90189546
:100E5000E0E4F8E08DE695E080879187158280ECEC
:100E6000868383E08783138614861686158688ED2D
:100E700099E0809324289093252889ED99E0809328
:100E80002228909323288AED99E08093202890933C
:100E900021281092262810922728E0912C28F091E2
:0C0EA0002D2882E098E280839183089561
:100EAC00DC01ED91FC91119780818A3221F080E078
:100EBC0090E03AE00EC03196ED93FC93DB01ED919E
:100ECC00FC911197CF0102968D939C938081918117
:100EDC000895ED91FC911197208120532A3068F4EC
:100EEC00389FA001399F500D1124CA01820F911D0A
:0C0EFC003196ED93FC931197ECCF089514
:100F08001F920F920FB60F9211242F933F934F9376
:100F18005F936F937F938F939F93AF93BF93EF9359
:100F2800FF9382E080930B06E0912A28F0912B280A
:100F3800309709F00995FF91EF91BF91AF919F917B
:100F48008F917F916F915F914F913F912F910F906A
:080F58000FBE0F901F901895C9
:100F60001F920F920FB60F9211242F933F934F931E
:100F70005F936F937F938F939F93AF93BF93EF9301
:100F8000FF9381E080930B06E0912828F0912928B7
:100F9000309709F00995FF91EF91BF91AF919F9123
:100FA0008F917F916F915F914F913F912F910F9012
:080FB0000FBE0F901F90189571
:100FB80040E068ED80E690E00E94BA0941E168ED02
:100FC80081E690E00E94BA0940E068ED82E690E090
:100FD8000E94BA0940E068ED83E690E00E94BA09F1
:100FE80040E068ED80E790E00E94BA0940E068EDD3
:100FF80088E790E00E94BA0940E068ED8CE790E04D
:061008000E94BA090895E0
:10100E00A0E0B0E0EDE0F8E00C94B7087C01FB0145
:10101E00EA01C901A280B380C480D580008111810C
:10102E00209711F4CCE8D3E5009719F4CE010E9475
:10103E003609B7FC04C0A816B90608F4C501960116
:10104E00AC01BE01C7010E94BD06CDB7DEB7EAE016
:04105E000C940009E5
:10106200A1E21A2EAA1BBB1BFD010DC0AA1FBB1FAA
:10107200EE1FFF1FA217B307E407F50720F0A21B1C
:10108200B30BE40BF50B661F771F881F991F1A9489
:1010920069F760957095809590959B01AC01BD01B3
:0410A200CF010895DD
:1010A600CF93DF93EC0190E0E92FF0E0EE0FFF1F06
:1010B600E851FD4A8081811102C081810EC0A8815C
:1010C600B9812C91821305C091811196A883B983A9
:1010D60001C09F5F9B3040F3892FDF91CF91089528
:1010E6000E944409CEEFD2E50F2EF7E6EF2EF4E08C
:1010F600FF2EF02D11E00E94C2099F938F93DF937C
:10110600CF930E94C808F701108382EC92EA0197F8
:0E111600F1F700C00F900F900F900F90ECCFEC
:10112400A0E0B0E0E8E9F8E00C94B9086C01EB0148
:101134008A017B01E40EF51ECE15DF0541F089918D
:10114400B601082E000C990B0E94A705F5CFC80123
:0A115400CDB7DEB7E8E00C94020905
:10115E002F923F924F925F926F927F928F929F92B9
:10116E00AF92BF92CF92DF92EF92FF920F931F93A7
:10117E00CF93DF93CDB7DEB7CA1BDB0BCDBFDEBF80
:02118E000994C2
:10119000A0E0B0E0EEECF8E00C94BF08AE014B5FCD
:1011A0005F4FFA0161917191AF01E0912C28F091AC
:1011B0002D28808191810E94E008E2E00C940809CA
:1011C000A2E0B0E0E6EEF8E00C94BD088C014983A3
:1011D0005A83AE014F5F5F4F0E948106F801208164
:1011E00024FF02C08FEF9FEF2296E4E00C940609E3
:1011F0002A88398848885F846E847D848C849B84A7
:10120000AA84B984C884DF80EE80FD800C811B81B4
:10121000AA81B981CE0FD11DCDBFDEBFED010895EA
:10122000E0E0F6E081E0868B118212821382148264
:10123000148611861286168215822FEF33E0248BD6
:0C124000358B128A138A808380E00895A9
:10124C00E0E0F6E0868381E080870E94BE09882377
:10125C00E1F3E0E0F6E08089918921E023870895AD
:10126C00FC01AF014F5F5F4F2081222311F0FA0187
:0C127C00F8CF9F01281B390BC901089511
:101288000E94DC070E946D030E9410090E94280733
:0A1298000E94A0090E945109089568
:1012A20040E068ED80E191E00E94BA09E0E1F1E0FE
:0812B2001282138280E008950E
:1012BA00CF93C82F0E949A098823E1F3C09342086A
:0812CA0080E090E0CF9108954F
:1012D200EC010E94DC090E94DB09CE010E94DD09BB
:0612E200CE010E94CF09BD
:1012E80068076C094C836A9074A07AC0008068888B
:0612F80000846C820081FD
:1012FE004C696768742076616C75652025642020C2
:03130E00200D00AF
:101312009C01215631092A31310510F48F75992724
:0213220008952C
:101324009C01215431092A31310508F48062089561
:0C1334008091440885FB882780F908950B
:0C134000E0EAF0E01082118280E00895E5
:0A134C008F938FEF83B98F911895EE
:0A1356008F938FEF87B98F911895E0
:0A1360008F938FEF8BB98F911895D2
:0A136A008F938FEF83BB8F911895CE
:08137400FC0164BF40830895F1
:08137C0080910B0681700895B9
:0813840085E00E94260908958E
:07138C00286E756C6C29004E
:06139300286E696C2900C0
:04139A000C940000AF
:04139E000E947F002A
:0213A2000895AC
:0213A4000895AA
:0213A6000895A8
:0213A8000895A6
:0213AA000895A4
:0213AC000895A2
:0213AE000895A0
:0213B00008959E
:0213B20008959C
:0213B40008959A
:0213B600089598
:0213B800089596
:0213BA00089594
:1013BC000300000000000000000000005D090000B8
:0213CC002E28C9
:02000004008278
:090000000000020000C00700002E
:00000001FF
