:03000000020006F5
:03005F0002000399
:0300030002006296
:20006200120155750C01750D00750E419000011201907525037526007527A5752800752966
:2000820008752A0090000112033F751141751204751380750F0175100090000112019F75B6
:2000A20014017515007516C97517017518037519009000021201D7751A05751B00751CEB84
:2000C200751DFC751E03751F0090000212022B75200A7521007522A4752302752400900062
:0600E200021202C680FEBE
:0D04410048656C6C6F20576F726C64210071
:2000E8007FEF7E02DFFEDEFC22AE82AF837C017D007A007B00C3EA9508EB950950268E2BDE
:200108008F2C8C828D83C007C006C003C00212038EAC82AD83D002D003D006D0070ABA00D5
:20012800D40B80D18C828D8322AF82C292C2918F80D2901200E8C2900200E8AF82D292C271
:20014800918F80D2901200E8C2900200E875820612013175820C12013175823812013175EF
:200168008201020131AE82AF83BE010EBF000BAF0A1F74804FF582020131AF0A743F2FFF67
:2001880074804FF582020131850C0A850D0B12016D850E82020143850F0A85100B12016D98
:2001A8007E007F00EE2511FBEF3512FCAD138B828C838DF0120421FD60148D82C007C0064C
:2001C800120143D006D0070EBE00D90F80D62285140A85150B12016DAE18AF19EE4F6042B3
:2001E800EE24FFFCEF34FFFD8C088D0990000AC005C0041200F185822B85832C8516828573
:2002080017831203F8752B0A752C001203ABAA8274302AF582120143D004D0058C068D078E
:2002280080BA22851A0A851B0B12016DE51D30E719C3E4951CFEE4951DFF75822DC007C0BE
:2002480006120143D006D0078012AE1CAF1D75822BC007C006120143D006D007AC1EAD1F1D
:20026800EC4D700122EC24FFFAED34FFFB8A088B0990000AC007C006C003C0021200F1852C
:20028800822B85832CD002D003D006D0078E828F83C007C006C003C0021203F8752B0A75C3
:2002A8002C001203ABA882743028F582120143D002D003D006D0078A048B05020268852006
:2002C8000A85210B12016DAE23AF24EE4F6067EE24FFF508EF34FFF509900010C007C006D8
:2002E8001200F185822B85832CAC227D008C828D831203F8E5828583F0D006D007540FFCAC
:200308007D00C3EC940AED940050148C0374302BF582C007C006120143D006D007801074BD
:20032800372CF582C007C006120143D006D0071EBEFF011F80952285250A85260B12016D2F
:20034800AE29AF2AEE4F603DEE24FFFCEF34FFFD8C088D09900002C005C0041200F1858290
:200368002B85832C8527828528831203F8E5828583F054012430F582120143D004D0058CA1
:06038800068D0780BF2274
:06003500E478FFF6D8FD9F
:200013007900E94400601B7A0090044E780175A000E493F2A308B8000205A0D9F4DAF27541
:02003300A0FF2C
:1D038E00E582852BF0A4C582C0F0852CF0A4D0F025F0C583852BF0A42583F58322C8
:2003AB00E52B452C60467A01E52B25E0F52BE52C334012F52CE582952BE583952C40030A07
:2003CB0080E6C3E52C13F52CE52B13F52BC3E582952BF5F0E583952C4005F58385F082C3F2
:0D03EB00E52C13F52CE52B13F52BDAE122A0
:20003B007800E84400600A790175A000E4F309D8FC7800E84400600C7900900001E4F0A3C3
:04005B00D8FCD9FAFA
:2003F8007A10E4FBFCE58225E0F582E58333F583EB33FBEC33FCEB952BF5F0EC952C4006D3
:09041800FCABF0438201DADD22A5
:0D00060075812C12043DE5826003020003A9
:1C04210020F71430F6148883A88220F507E6A88375830022E280F7E49322E022EA
:04043D0075820022A2
:00000001FF
