:100000008006002039120000033400000D120000A9
:100010000D1200000D1200000D1200000000000083
:100020000000000000000000000000007D0F000044
:100030000D12000000000000350F00008D3600009A
:10004000F90F0000F90F0000F90F0000F90F000090
:10005000F90F0000F90F0000F90F0000F90F000080
:10006000F90F0000F90F0000F90F0000F90F000070
:10007000F90F0000F90F0000F90F0000F90F000060
:10008000F90F0000F90F0000F90F0000F90F000050
:10009000F90F0000F90F0000F90F0000F90F000040
:1000A000F90F0000F90F0000F90F0000F90F000030
:1000B000F90F0000F90F0000F90F0000F90F000020
:1000C000F90F0000F90F0000F90F0000F90F000010
:0C00D000F90F0000F90F0000F90F00000C
:1000DC0053B94AB9002908BF00281CBF4FF0FF31A3
:1000EC004FF0FF3000F074B9ADF1080C6DE904CE9F
:1000FC0000F006F8DDF804E0DDE9022304B07047F7
:10010C002DE9F047089E04468846002B40F0858078
:10011C008A42154648D9B2FA82F24AB1C2F1200796
:10012C0001FA02F320FA07F7954047EA03089440D6
:10013C004FEA154E230CB8FBFEF71FFA85FC0EFB9D
:10014C00178843EA084307FB0CF1994209D9EB18CD
:10015C0007F1FF3080F0E380994240F2E080023FEB
:10016C002B445B1AA4B2B3FBFEF00EFB103344EA33
:10017C00034400FB0CFCA44509D92C1900F1FF33F6
:10018C0080F0CB80A44540F2C88002382C4440EA71
:10019C000740A4EB0C0400271EB1D4400023C6E991
:1001AC0000433946BDE8F087002A53D0B2FA82F2F8
:1001BC00002A40F0B680491B4FEA154E1FFA85F80D
:1001CC000127B1FBFEFC230C0EFB1C1143EA01437F
:1001DC0008FB0CF1994207D9EB180CF1FF3002D255
:1001EC00994200F2EC808446591AA3B2B1FBFEF09E
:1001FC000EFB101443EA044408FB00F8A04507D991
:10020C002C1900F1FF3302D2A04500F2DC80184615
:10021C00A4EB080440EA0C40BEE78B4208D9002E40
:10022C0078D00027C6E9000138463946BDE8F0878A
:10023C00B3FA83F77FB98B4202D3824200F2BD80BE
:10024C00841A61EB030301209846002EA9D0C6E95D
:10025C000048A6E7FFDEC7F12005BB4022FA05FCEB
:10026C004CEA030C01FA07F420FA05F821FA05F31D
:10027C004FEA1C4E48EA0404B3FBFEF9210C0EFBBA
:10028C0019331FFA8CF841EA034309FB08FA9A4523
:10029C0002FA07F200FA07F10BD91CEB030309F180
:1002AC00FF3080F088809A4540F28580A9F10209E0
:1002BC006344A3EB0A03A4B2B3FBFEF00EFB1033B2
:1002CC0044EA034400FB08F8A04508D91CEB0404DD
:1002DC0000F1FF336BD2A04569D90238644440EA7F
:1002EC000940A4EB0804A0FB02894C45C6464B46CA
:1002FC0054D351D0002E69D0B1EB0E0264EB030441
:10030C0004FA05F522FA07F3FC401D43C6E9005434
:10031C00002746E73746304643E7184637E7074697
:10032C001FE7C2F1200320FA03F7954001FA02F00F
:10033C0021FA03F34FEA154E3843010CB3FBFEF7D9
:10034C001FFA85F80EFB173341EA034107FB08F34C
:10035C008B4204FA02F407D9691807F1FF3C28D242
:10036C008B4226D9023F2944CB1A81B2B3FBFEF053
:10037C000EFB103341EA034100FB08F38B4207D913
:10038C00691800F1FF3C10D28B420ED90238294477
:10039C00C91A40EA074714E74145ABD2B8EB020E45
:1003AC0069EB0C0201381346A4E76046F0E71846E7
:1003BC0095E76746D8E781467BE7384645E7ACF1D9
:1003CC00020C2B4410E702382C4421E73746E8E6B0
:1003DC00704700BF38B5064D064C2946204602F042
:1003EC00D5FE00214FF4004002F0B0FCF5E700BF51
:1003FC00C03B0000CD3B00000B6801330B60014B90
:10040C001B68184700000020014B1860704700BFA4
:10041C000000002007B50023019302460B46034859
:10042C0001A900F0E3F803B05DF804FB050400003B
:10043C002DE9F84FB0F8189019F0080804460DD0C3
:10044C0001290CBF49F0100949F02009A0F81890B7
:10045C0082F31188BFF36F8FBDE8F88F09F007099D
:10046C00022907D1204602F09EFE0028F0D0012878
:10047C00238B4AD16769238B002F15DA2568C4E9D1
:10048C00008823F0070343F0010323830026238B0A
:10049C0003F0070ACA4502D0A168002956D10DB94C
:1004AC00002E6DD0002152E003F00701481F0128F7
:1004BC001CD823F00703062925689BB2C4E90088E1
:1004CC000AD13DB1618B28460068013189B2002800
:1004DC00FAD1618343F002032383204602F063FECA
:1004EC000028D3D0238B43F02003CEE704290AD174
:1004FC0023F0070399B22183204602F054FE10B179
:10050C0041F0200121830025C0E7032809D121698E
:10051C0023F007030E6843F00603238300252F46C0
:10052C00B5E7042806D1216923F007034E6843F090
:10053C000403F2E7052806D1216923F007038E682E
:10054C0043F00503E9E700252E46E8E7012143F0D7
:10055C000803238382F31188BFF36F8FF9B985BB2E
:10056C0016B121492046B0474FF02003EFF311821A
:10057C0083F31288BFF36F8F238B23F0080323833D
:10058C00238BD90627D523F0100323830121B4F83C
:10059C00189009F0070900297FF462AF58E7A168A9
:1005AC000029DCD0D1F80090D1F804B03B4652467B
:1005BC002046D847B9F1000FD1D04946D9F8009060
:1005CC00F2E7D5F8009029463B465246204602F009
:1005DC0006FE4D46C3E713F020011EBF23F0200397
:1005EC0023830221D3E700BF173200002DE9F04F1F
:1005FC0093B08A46039093461C4600259BF8000056
:10060C0008B928461AE325280BF1010707D05146F3
:10061C00039B98470028C0F21183013502E218228F
:10062C0000210CA802F009FF9BF80130252B7CD08F
:10063C000022CDE90422BC4610469146164690464F
:10064C001746964663461CF8011B2B2900F09F8029
:10065C0000F29580202900F09D80232900F09D80D8
:10066C002FB19DF838706EF382078DF838702EB16B
:10067C009DF8386068F3C3068DF8386028B19DF892
:10068C00380069F304108DF83800049828B19DF8EF
:10069C00380040F020008DF8380032B19DF8382039
:1006AC00059860F386128DF838209DF8382002F0FA
:1006BC004400442803D16FF386128DF838209DF83E
:1006CC0038202A2942F080028DF8382040F08180B1
:1006DC005A1C9DF8393043F001038DF839301378EA
:1006EC002E2B9DF839300CBF0121002161F3410301
:1006FC008DF8393079D153782A2B6FD00132002103
:10070C000A26104610F8013BA3F13007092F40F2DE
:10071C0093809DF838301091C3F3400040EAD171BA
:10072C0061F341038DF838305FE00BF102078DF86F
:10073C003B309DF83930DE0740F11B8154F8049BA7
:10074C00B9F1000F07DA9DF8382042F004028DF859
:10075C003820C9F10009580740F11481234653F899
:10076C00048BB8F1000F80F227819DF839206FF3CC
:10077C0041028DF839201C464FF0FF3807E12D2936
:10078C000ED030297FF46CAF012205925AE7012676
:10079C00B04657E70120814654E70123049351E703
:1007AC000127BE464EE70CFB010130393246164696
:1007BC0016F8010BA0F13007092FF4D993428ED013
:1007CC009DF838300F91C90F61F341038DF8383023
:1007DC0085E71A4600214FF00A0CE8E79DF83930FE
:1007EC0043F004038DF839300232174617F8013BF9
:1007FC006A2B47D025D84C2B50D0682B2ED01746BF
:10080C0017F8012B8DF83B20672A9DF8393060D8FA
:10081C00652A55D2582A00F098804CD8412A4FD0DE
:10082C0002D3453A022A4BD99DF8383043F00103E4
:10083C008DF8383000236AE006FB0131303902466E
:10084C005FE7742B26D07A2B20D06C2BD7D1537822
:10085C006C2B9DF8393013D1042105E05378682BAB
:10086C009DF8393006D1012161F3C6038DF839307A
:10087C00971CC5E7022262F3C6038DF83930BFE737
:10088C000322F8E79DF839300522F4E79DF839305A
:10089C000622F0E79DF839300722ECE7BDF8383036
:1008AC0023F4F04323F0020343F4804343F00203A8
:1008BC00ADF83830A4E7632A47D012D8612AB3D1F7
:1008CC009DF83A30042262F302038DF83A3001238A
:1008DC001DE0702A2CD024D86E2A3AD035D8692A3B
:1008EC00A2D19DF83A10012003F0780360F30201C5
:1008FC00402B8DF83A1002BF9DF8381041F00101E1
:10090C008DF83810632A95D1003318BF01239DF858
:10091C003820C2F340010B4363F341028DF83820B9
:10092C0007E7752A11D0782A0FD0732A7FF47CAF91
:10093C009DF83A20032113F0780F61F302028DF831
:10094C003A2014BF01230023E1E79DF83A1002205E
:10095C00CAE79DF83A2003F07803A3F1400C032179
:10096C0061F30202DCF100038DF83A2043EB0C0337
:10097C00CDE79DF93820002AB4BFDDF83C904FF04C
:10098C00FF39E8E699077FF5F7AEDDF840809DF872
:10099C0039200023CDE90F339DF83A3003F00703DB
:1009AC00012BC2F3C3023FD1D31E042B14D8DFE8B2
:1009BC0003F0050D0D1313001C46E8E7234653F80E
:1009CC00040BC117CDE90C011C461CE0073424F0C4
:1009DC000703F3E80201F5E72346012A53F8040B59
:1009EC004FEAE071CDE90C011C4605D19DF8303081
:1009FC000C9300230D9306E0022A04D1BDF93000BC
:100A0C00C117CDE90C019DF8383013F003063FD027
:100A1C003B465A465146039802F0C7FC0028C0F2E8
:100A2C000D810544BB46E9E5022B20D1D31E042BD6
:100A3C000ED8DFE803F00309090D0D0020680C90B7
:100A4C000021231D0D91BFE7E31D23F00703C0E731
:100A5C002346012A53F8041B0C914FF000010D9111
:100A6C001C46C3D0022ACED1BDF83030C0E7042BCF
:100A7C0007D1E31D23F00704F4E80201CDE90C01D2
:100A8C00C1E7032BBFD1234653F8041B0C919BE702
:100A9C009DF83B006E2800F0A9803DD8632872D0E9
:100AAC0022D825283FF4B3AD5828BBD10DF12E0325
:100ABC0000930EAA06ABDDE90C0102F029FC83467B
:100ACC00B8F1000F0DF12E000CDB9DF83820A0EBD7
:100ADC000B036FF3861298458DF8382002D9A8EBDA
:100AEC0003030F93804646E0642801D0692899D10E
:100AFC001A0779D413F0100F0CBF00262026DDE95D
:100B0C000C23002A73F10001D0DA524263EB430349
:100B1C00CDE90C232D26C9E7732820D01BD86F28CC
:100B2C00C4D070287FF47EAF0C98002873D00DF1E0
:100B3C002E0300930EAA06AB314602F0E9FBBDF87A
:100B4C003A3003F0EF0343F4F04343F010038346D1
:100B5C00ADF83A30B4E77528A8D07828A5E7B8F1F5
:100B6C00000FDDF830B00ADB4146584602F051FC6C
:100B7C000BEB00080026BBF1000F0BD152E75846D7
:100B8C0002F040FCF4E70C9B8DF818300DF11908BD
:100B9C000DF1180BA8EB0B0306B101339DF83A20AD
:100BAC00D0063ED5023352060F9948BF109A0B441B
:100BBC0048BF9B18B9F1000F4DDD9DF83820A9EB0B
:100BCC000309C2F380030493002B44D1500638D59B
:100BDC0046B151463046039B984700282EDB049BB8
:100BEC0001351E4630232DE02B2688E70C9B072A67
:100BFC003FF618AFDFE802F00D04060D08080D0DE6
:100C0C001D700FE71D800DE72846E917C3E90001A9
:100C1C0008E71D6006E7DFF8C8800646A8F1050B5B
:100C2C00B8E7110748BF0133BDE718460493514696
:100C3C00039B984700284A46049B05DA13B0BDE88D
:100C4C00F08F20234A464D44002AA5EB020102F105
:100C5C00FF39EADC0D4636B151463046039B9847C6
:100C6C000028EBDB01359DF83A30D90601D41A0780
:100C7C0006D551463020039B98470028DEDB013512
:100C8C009DF83A30DB0607D551469DF83B00039B97
:100C9C0098470028D2DB01350F9E2E44731B002B86
:100CAC0016DC43465A465146039802F07EFB002858
:100CBC00C4DB0544A944A9EB0503002B7FF7B2AEB6
:100CCC0051462020039B98470028B7DB0135F2E7FB
:100CDC0051463020039B98470028AFDB0135DDE7F8
:100CEC00E73B0000F8B506464FF02003EFF3118503
:100CFC0083F31288BFF36F8F094B1C685CB1094FEB
:100D0C00D4E90132002E08BF13460BB1387898474E
:100D1C002468002CF4D185F31188BFF36F8FF8BDD4
:100D2C0038010020400100201FB50F4B1A68BAB9DA
:100D3C0001221A600D4A07CA01AB83E807000C4A6E
:100D4C004AB193E8070002F097FB002005B05DF86C
:100D5C0004EBFFF7C7BF82F31188BFF36F8FF4E783
:100D6C0005B05DF804FB00BF04000020400100202A
:100D7C008534000070B588B06D460146064628469D
:100D8C0002F02AFB95E80700174C84E8070020784E
:100D9C0038B3164B00211960731C0DD014484FF456
:100DAC0000430021E3FB0201124A0023FFF790F9F4
:100DBC000121301A02F07EFD01F094FD0120FFF7B5
:100DCC0091FF94E8070005AB83E807000A4A1AB1C3
:100DDC0093E8070002F03DFBFFF7A6FF01F002FFCE
:100DEC00207808B070BD00BF400100200400002036
:100DFC003F420F0040420F005F34000001491022B7
:100E0C000A60704710ED00E072B6404080F3118824
:100E1C00BFF36F8FBFF34F8F30BF62B6BFF36F8FCF
:100E2C00704700BF72B6494081F3118820BF80F330
:100E3C00118862B6704700BF43B2002B08DB012259
:100E4C0000F01F0002FA00F05B09024A42F823008E
:100E5C00704700BF00E100E04209054B00F01F00A5
:100E6C0053F82220012303FA00F01040704700BF12
:100E7C0000E100E043B2002BA8BF03F1604301F195
:100E8C0001014FEA4111AEBF03F5614300F00F00C1
:100E9C00034BC9B2ACBF83F800131954704700BFA1
:100EAC0014ED00E030BFFFF7FDBF00BF0F4A08B5DF
:100EBC000F4B22F07F029A60BFF34F8FBFF36F8FFF
:100ECC00D3F8882022F47002C3F88820EFF314833F
:100EDC0023F0040383F31488BFF36F8F01F042FBFC
:100EEC0001F0A6FF00F096F901F046FB00000000AF
:100EFC0000ED00E0094A0A499368096899670949B5
:100F0C0058674B6843F080534B60002383F3118880
:100F1C00BFF36F8F9368986F704700BF400200203B
:100F2C00BC3B000000ED00E00F498A684FF0300038
:100F3C001044EFF3098C80E8F01F202080F3128816
:100F4C00BFF36F8F094F4FF00066CA698A603E602D
:100F5C00506F0023536780F3118802F1300090E842
:100F6C00F01F8CF3098870474002002004ED00E06C
:100F7C001EF0040F0CBFEFF30880EFF309808169BA
:100F8C0011F8021C0229FFD001B502F02CFA01BDA8
:100F9C0042F8203C009B42F81C3C0A49019B42F859
:100FAC00183C029B42F8143C21F001014FF0807375
:100FBC0042F8043C42F8081C0023203A02654367BF
:100FCC00704700BF09330000074B9860104681F34F
:100FDC000988002163B681F31188BFF36F8F00225B
:100FEC00002302F08BF900BF4002002001B572B65D
:100FFC000B4A906900281EBF0021916102F088FB0A
:10100C0062B6EFF30580A0F110004FEAC00005496D
:10101C00014409C99847BDE801400349084700004D
:10102C0040020020A039000039100000044B9968E0
:10103C00D869884203D003494FF080520A60704748
:10104C004002002004ED00E00E4B9A6A9A6A9A6AFC
:10105C00920708D55A6B9A6A120604D518B19A6A87
:10106C0022F080029A62074B9A6A9A6A9A6AD206AE
:10107C0058BF9A6A9A6A002042F0FF029A6208707E
:10108C00704700BF00ED00E00D4B9A6A9A6A9A6AAD
:10109C00920508D59A6B9A6A120404D518B19A6A0B
:1010AC0022F400429A62064B9A6A9A6AD20558BF99
:1010BC009A6A9A6A002042F47F429A6208707047DA
:1010CC0000ED00E0074B9A6A9A6A9A6A9A6A9A6AE1
:1010DC009A6A9A6A6FEA02426FEA12429A62002096
:1010EC00704700BF00ED00E070B53E4B5B688AB006
:1010FC00C3F30803002585F31188BFF36F8F02F04B
:10110C007F44B4F17F4F12D102F00C04082C0ED0A6
:10111C0012074EBF0E46064601250022033B8DF8F2
:10112C000720032B57D8DFE803F0044E524B2E4612
:10113C00F3E72C4BDC6A14F002044CD1DA6A002A77
:10114C0018DBDC6A14F0804414D0B36933F8022C39
:10115C004DF602739A420CD003F1604303F62663FA
:10116C001B78FBB10DF107010120FFF76DFF044661
:10117C0000E034689DF8073093B92022314602A86C
:10118C0002F050F9099B45B3C3F3080222B96FEA88
:10119C0053236FEA4323099302A9204602F021F955
:1011AC000AB070BD104B1B782BB10DF1070101205B
:1011BC00FFF76AFFDBE70D4B1C88A4B2002CD9D0DB
:1011CC00FFF780FFD3E70DF107010020CDE70DF10C
:1011DC0007010020ECE70024CCE723F4FF7323F095
:1011EC000103D8E700ED00E029ED00E02AED00E076
:1011FC00024A536943F010035361704700ED00E05D
:10120C00EFF30880EFF3098101B57246FFF76CFF2D
:10121C0001BD00BF044800232021C2180133272B35
:10122C0082F80013F9D1704700E100E002F064FB92
:10123C00202080F3118808484FF40061401880F397
:10124C000988EFF314800221084380F31488BFF35C
:10125C006F8FFFF72BFE0000C0070020064B9B682A
:10126C00834207D1EFF3058323B1044A536843F05B
:10127C008053536001F08ABD4002002000ED00E075
:10128C00024B034A0348012100F058B8000001202A
:10129C0000000020083B0000F0B51E4F00268E42D7
:1012AC0001DB1046F0BD446884B353B104F1FF3C3C
:1012BC0014EA0C0F18D11F2C16D905681CEA050F5F
:1012CC0012D1202CD2B20568D0F808C00FD9B4F1D5
:1012DC00004F0ED8013CB4FA84F4C4F11F0464002E
:1012EC00072A4CEA040406D96FF01502D9E7082442
:1012FC00F6E73E24F4E725F01F05154345F01005ED
:10130C0044F00104BA60FD6001323C6101360C30DE
:10131C00C5E700BF90ED00E0034B05225A60BFF318
:10132C004F8FBFF36F8F704790ED00E0BFF35F8F6F
:10133C00014B00225A60704790ED00E010B5034C51
:10134C0001232278FFF7A8FF207010BD780200203F
:10135C0013490868082810B51ED8FFF7E7FF114C91
:10136C0049680022904201F10C0105D10E4B187016
:10137C00FFF7D2FF002010BDA26051F80C3C23F007
:10138C001F03134343F01003E36051F8043C43F094
:10139C00010323610132E5E74FF0FF30EBE700BFBB
:1013AC00143B000090ED00E078020020014B186027
:1013BC00704700BF080000204FF02003EFF31182AC
:1013CC0083F31288BFF36F8F06490123C1F84035B0
:1013DC004FF08041C1F8783582F31188BFF36F8FDD
:1013EC000020704700E0014020B1034B800143F026
:1013FC0001031847704700BF003B00000E4A70B550
:10140C00841AA3100D4C5C430546E4B20C2000FB7F
:10141C0004200E464021084402F042F8011E05DB70
:10142C00074B03EBC40463689847002128463346F6
:10143C00BDE87040184700BF5C010020B76DDBB6FB
:10144C00483B00002DE9F041104E841BA310104CBA
:10145C005C43E4B20C256543804605F140000F4621
:10146C003044402102F035F8011E09DB094A73199A
:10147C00C3E90E27084B53F83430BDE8F041184748
:10148C0040463B46BDE8F041184700BF5C010020D8
:10149C00B76DDBB641350000483B0000002270B54B
:1014AC00012104461046FFF7E5FC0020FFF7C4FCC1
:1014BC000F4800F0C5FE0F4B984215D102F0E5F82D
:1014CC0026690D49304601F0BDFE00280BDB0125D5
:1014DC0035642469084904F11C0001F0B3FE0028AE
:1014EC0001DBE564002070BD6FF00400FBE700BF7A
:1014FC00C51500000000AD0B583B000010B5074CA3
:10150C0023782BB94FF4A57002F0F2F90123237064
:10151C000020BDE8104000F0A3BE00BF79020020FF
:10152C0001460C2309484B4370B5C418D4E90E5638
:10153C0000224033A263184401F0E9FF2DB132467A
:10154C002B460348BDE87040184770BD5C01002075
:10155C004039000008B54FF02003EFF3118183F3FD
:10156C001288BFF36F8F124A136843F0020013F016
:10157C00010310600CD04FF08042D2F80C34D2F83A
:10158C000C2413F0010303D00A4801F0C0FF01231F
:10159C0081F31188BFF36F8F23B10020BDE80840A1
:1015AC00FFF7BEBF0120BDE8084000F059BE00BFE8
:1015BC00AC0100209C01002010B1012804D0704720
:1015CC00034B1B6C5B0701D1FFF7AABF704700BF31
:1015DC005C010020094BBFF35B8F53E8002F22F016
:1015EC00020143E800100028F7D1BFF35B8FD3074B
:1015FC0002D4012000F080BE704700BFAC01002077
:10160C001FB500220123CDE902236B46084ACDF811
:10161C0000D0CDF804D001F09CFF002805DB4FF47E
:10162C0080420023684601F0D9F805B05DF804FB50
:10163C00593500002DE9F8433A49BFF35B8F054655
:10164C00012251E8003F41E800200028F9D1BFF306
:10165C005B8F33B9344935484B60CB608A6001F0FD
:10166C0004FE6B1E012B30D8012D07D14FF08043A7
:10167C00D3F81C3403F00303012B26D002F042F8FC
:10168C0018B92B4B1B78002B43D14FF02003EFF3F1
:10169C00118983F31288BFF36F8F0124254E264FD7
:1016AC00DFF898804FF08042D2F81834D2F8182422
:1016BC00D2030CD503F00303012B01D0012D06D16D
:1016CC000CB389F31188BFF36F8FBDE8F883ACB10D
:1016DC004846FFF7A7FB4FF08042D2F81835002B95
:1016EC00E0D131680029DDD0336033680123C2F8C2
:1016FC001835C7F88031C8F80030D3E70021212015
:10170C0001F024FBE7E74FF080430222C3F80423E7
:10171C00DBE74FF080430222C3F8082304468146DE
:10172C00BCE700BFB00100204C0100207801002074
:10173C007B0200200401004000E100E008000040B2
:10174C0008B5084B0848186001F0ABFF38B10748E2
:10175C00FFF72CFE0548FEF757FE002008BD6FF082
:10176C001200FBE7B4010020583900007D1700007F
:10177C000A2838B50446074D04D1286883680D2122
:10178C005B68984728688368E1B25B689847204695
:10179C0038BD00BFB401002008B5094B1A786AB9EE
:1017AC000121197006200521FFF764FB0620FFF7C5
:1017BC0043FB044B4FF00042C3F80423002008BD48
:1017CC007A0200200060004073B50D46416806693E
:1017DC00097A05F01F04B2F5A03F44EA41140CD17C
:1017EC0004F01F014FF0A04001F5E07150F82110FA
:1017FC00C80707D56FF0850091E0B2F5005FF1687E
:10180C0000F08F800121F068A94001437069F160FC
:10181C000121A940B2F5A03FB2690CBF084388432F
:10182C00B3F5C02F0CBF0A438A43B26132697061B1
:10183C00B3F5802F0CBF114322EA0101464A3161F6
:10184C00D2F804330020DBB200F5A27152F821105B
:10185C00C1F304218C4269D123FA00F1C90765D583
:10186C00830003F1804303F5C043D3F8101521F036
:10187C000101C3F8101501238340C2F80833C0B22C
:10188C0000F0B4FD2046002101F092FEF068E84023
:10189C0010F0010043D07069E84010F001024ED006
:1018AC00B369EB40DB0745D4336923FA05F515F032
:1018BC00010F14BF012502250DF1070000F0B8FD42
:1018CC00264B984238D19DF807108B0003F18043CA
:1018DC0003F5C0432402D3F8102522F4473222F436
:1018EC004072C3F81025D3F8102504F4F8541443AF
:1018FC008A0002F1804202F5C24244EA054400200B
:10190C00C3F8104510601268D3F8102542F001029C
:10191C00C3F810250123104A8B40C2F8043302B0DF
:10192C0070BD0120A84021EA00016FE701300828B2
:10193C008AD1A7E70325BFE76FF01200EFE7336901
:10194C0023FA05F515F0010F20460CBF03210221E7
:10195C0001F02EFE1046E2E7006000400000AD0BE7
:10196C002A4B1340B3F5801F70B546683ED007D89C
:10197C00022B3DD0062B13D093B16FF0150034E041
:10198C00B3F5800F36D004D821488342F5D1072314
:10199C0006E0204883422FD0B3F5A00FEDD10323EE
:1019AC00D00654BFC2F34015032582F4807412F4A0
:1019BC00007FC2F34020C4F3002407D012F4006F60
:1019CC0076681BD001228A40C6F8082540EA4400FC
:1019DC0001F01F0140EA032301F5E0714FF0A04232
:1019EC0043EA850342F82130002070BD0123D7E77C
:1019FC000423D5E70223D3E70523D1E7520542BFE1
:101A0C0001228A40C6F80C25E0E700BF0600F00072
:101A1C000600100002004000424A2DE9F04715680C
:101A2C00002D59D0404BD3E90514D8681B692143CC
:101A3C0020EA01084FF0A0414646D1F810455C4021
:101A4C0028EA040401274FF0000A894676BB166089
:101A5C0013683648002301261F46D0F8042306FAE3
:101A6C0003F1114211D09A0002F1804202F5C242F8
:101A7C00116851B103F5A27150F821101760C1F330
:101A8C00042106FA01F112680C430133082BE4D14E
:101A9C0024BB4DB1244CD4E90510E268014322EA81
:101AAC0001020125002652BBBDE8F08737420FD05A
:101ABC0017EA080F0AF01F0008BF00F5E0734FF09B
:101ACC00000108BF59F8233001F072FD26EA070621
:101ADC000AF1010A7F00B9E72C46BAE7124B5968A4
:101AEC000029D6D00E68124F8A68224002D04B686B
:101AFC0038469847002ECCD031463668F4E715426C
:101B0C000CD02369F34013F0010F0CBF0321022109
:101B1C0006F01F0001F04CFD22EA050201366D00B3
:101B2C00C1E700BF7C610040B801002000600040AC
:101B3C0088390000064B1A683AB1002018601B68FF
:101B4C00044BD3F818350B7070474FF0FF307047CB
:101B5C000821004000200040024BD3F88004C3F859
:101B6C00800470470020004030B54B79012B1CD10C
:101B7C008B79032B19D1CC790CB1012C15D10A79A5
:101B8C0012B1022A11D10E220B6847F61225AB4274
:101B9C005FD027D8B3F5965F5ED012D8B3F5167F19
:101BAC005CD005D8B3F5967F5BD06FF085004FE025
:101BBC00B3F5966F58D0B3F5166FF6D14FF41D23CD
:101BCC003BE0B3F5615F52D004D8B3F5165FECD1AE
:101BDC00304B32E0B3F5964F4CD0B3F5E14FE4D136
:101BEC002D4B2AE0B3F5E13F46D011D84DF6C02578
:101BFC00AB4243D004D8B3F5164FD6D1274B1CE0DB
:101C0C00B3F5614F3DD0B3F5963FCED1244B14E0E4
:101C1C00B3F5E12F37D008D8B3F5613F35D0214D5E
:101C2C00AB42C2D14FF0806307E0B3F5612F2ED0E9
:101C3C001D4DAB42B9D14FF080531C4D2243C5F81A
:101C4C002435C5F86C25036903C983E8030000201B
:101C5C0030BD4FF40003F0E7154BEEE74FF41C33A7
:101C6C00EBE74FF4A033E8E74FF49E23E5E74FF49E
:101C7C006C13E2E70F4BE0E70F4BDEE74FF4650325
:101C8C00DBE70E4BD9E70E4BD7E70E4BD5E70E4BE8
:101C9C00D3E700BF0050270000F0750000509D00F6
:101CAC0000903A0190D0030040420F000020004009
:101CBC0000B0130000A04E0000E0D70100F0EB00D4
:101CCC0000705F0700B0AF0300D0BE0EF8B50E4633
:101CDC0001F018FD194D70BB64240127BFF35B8F15
:101CEC0055E8003F002B03D145E80072002AF7D1DC
:101CFC00BFF35B8F07D021200021013C01F026F8B7
:101D0C0014F0FF04EAD10E4C0022226022680D4A26
:101D1C0001211160C2F814654FF47A76236823B957
:101D2C00012001F0B0FC013EF8D1074B01221A60F2
:101D3C0000232B60F8BD01232B60E4E7D4010020C5
:101D4C001C210040082000400C20004038B54FF00A
:101D5C00A043164C00224FF48011C4F80025132523
:101D6C00C3F808150321C3F85017C3F84C27C4F85F
:101D7C0014551425C4F80C552025C3F80855C3F880
:101D8C001417C3F81C270523C4F808350723C4F817
:101D9C0010350169FFF7E8FE38B90423C4F80035A3
:101DAC00034B18601B680123236038BD00200040E2
:101DBC0008210040044A1368C91A21F07F400344EB
:101DCC00136001F029B900BFE40100202DE9F84FA0
:101DDC00850005F1804500F1500405F58835A40017
:101DEC00A4B2DFF87C80D5F84025DFF878A004F1A8
:101DFC0080444FF4803721F07F4604F588348740C7
:101E0C00C146D8F804B5A2EB0B0222F07F422BF0AE
:101E1C007F43012AC5F8403502D1132001F068FD3B
:101E2C000BF10202B31A23F07F43534528BF164629
:101E3C00002323602368C9F8447326F07F43C5F858
:101E4C004035D9F804359B4507D0F31A023B23F0F3
:101E5C007F43B3F5000F3246D3D8BDE8F88F00BFEF
:101E6C000010014001008000F8B5154C154F0026FC
:101E7C00154B00201D689C4606B1F8BDD4F8042310
:101E8C00D203FAD53A68002AF7D03E603A68DFF8F8
:101E9C003CE04FF48032C4F84823D4F84015D4F811
:101EAC000465721A22F07F42724528BF3146012622
:101EBC001DB118605A68A847DAE7CCF80050DCE787
:101ECC000010014040110140D801002001008000A9
:101EDC0038B5104D00244FF48033C5F80845C5F8CB
:101EEC0004330D4B4FF40032C3F8802101212246FC
:101EFC001120FEF7BFFF1120FEF79EFF074A0123BA
:101F0C001360074A2B6002201360FFF793FB2046F7
:101F1C0038BD00BF0010014000E100E00810014096
:101F2C00E0010020134BB0F1FF3F08BF1846013809
:101F3C0000281CDD9842A8BF18460F4BD3F8042587
:101F4C000E4B1968521A12F4000F22F07F4318BF7F
:101F5C0000200B4A013303440A48106000205060F3
:101F6C00044A934294BFC9188918FFF72FBF002069
:101F7C00E3E700BFFFFF7F0000100140E4010020F9
:101F8C00D8010020C11D0000044BD3F80405044BFC
:101F9C001B68C01A20F07F40704700BF0010014042
:101FAC00E4010020044B1868421C04BF034B187852
:101FBC00831F58425841704730010010E00F00F069
:101FCC00064B1868083B1B78062B05D1C0F3031091
:101FDC00C31E58425841704700207047E80F00F06C
:101FEC00024AD2F80034002BFBD0704700E00140CD
:101FFC0010B5FFF7D7FF28B17C4B7D4A1B68C3F3A4
:10200C0004231360FFF7DCFF10B17A4B7A4A1A6095
:10201C00FFF7C8FF28B1794B794A1B68C3F34233E9
:10202C001360FFF7CDFF20B1764AD36823F080739D
:10203C00D360FFF7B7FF40B14FF080430022C3F8E5
:10204C000C21C3F81021C3F83825FFF7B9FF10B1E4
:10205C006D4B03221A60FFF7B3FF40B16B4B0522A7
:10206C001A6001229A6700229A603F225A60684BDC
:10207C001A68511C0BBF674B674B1A781B6802BF61
:10208C0008331B68C3F30313062A49D1033B012B06
:10209C0046D94FF08052614BD2F80414C3F8201586
:1020AC00D2F80814C3F82415D2F80C14C3F8281568
:1020BC00D2F81014C3F82C15D2F81414C3F8301538
:1020CC00D2F81814C3F83415D2F81C14C3F8401500
:1020DC00D2F82014C3F84415D2F82414C3F84815C8
:1020EC00D2F82814C3F84C15D2F82C14C3F8501598
:1020FC00D2F83014C3F85415D2F83414C3F8601560
:10210C00D2F83814C3F86415D2F83C14C3F8681527
:10211C00D2F84014C3F86C15D2F84424C3F87025D7
:10212C00FFF740FF28B13E4B3E4A1B6803F04F03BC
:10213C001360FFF737FF48B14FF08043D3F800240A
:10214C00D20744BF6FF00102C3F80024304B1B6868
:10215C00062B09D1304B1B68033B022B81BF324A43
:10216C00136843F480631360294B1B68062B0CD156
:10217C00294B1B68033B032B81BF4FF01023D3F873
:10218C0008224FF08043C3F858254FF01023D3F8A2
:10219C000022002A03DBD3F80432002B22DA234975
:1021AC000123C1F80435FFF71BFF4FF01020152455
:1021BC00C0F80042FFF714FFC0F80442FFF710FF0D
:1021CC000023C1F80435FFF70BFFBFF34F8F1849FD
:1021DC00184BCA6802F4E0621343CB60BFF34F8F15
:1021EC0000BFFDE7144B154A1A6010BD2403001004
:1021FC004035014074C007400DF0ADBA44020010E8
:10220C003C050040F0ED00E0A005004010560040F9
:10221C0030010010E00F00F03401001000C000404D
:10222C0058020010E40E00403C17004000E0014052
:10223C0000ED00E00400FA05140000200090D0032B
:10224C00044B1A7922B9012218609A80024870470F
:10225C0002487047E80100200000AD0B0C00AD0BEC
:10226C0030B510B1012833D030BD4FF08043D3F8D6
:10227C001824D3F8181411F4803F194624D002F016
:10228C000302012A20D1C3F81825164B00221A602C
:10229C001B684FF080430222C3F80423124AD06813
:1022AC0040F08073D360114B1C6844F0010119603D
:1022BC005D685968491BB1F50A5FFAD31C600C4B79
:1022CC00D06001221A60CFE70023C1F81835DCE793
:1022DC00084B00221A601B684FF08043C3F80403BC
:1022EC001860C1E704010040F0ED00E0001000E0D0
:1022FC00080000400001004038B510B1012818D08A
:10230C0038BD4FF080430222C3F80823184A1060EE
:10231C001268184A0121116042F210751C46D4F85B
:10232C001834DB03ECD5012001F0ADF9013DF6D1F9
:10233C00E6E7114B4FF080440022C4F808031A6002
:10234C001B680E4B42F210751860D4F80C34D4F89C
:10235C000C24D20303F0010305D523B1012001F0B5
:10236C0092F9013DF1D1064B00225A71C8E700BF2A
:10237C00040100400C00004000010040040000403B
:10238C00E8010020164B1A6810B56AB100221A60D9
:10239C001B684FF080430122C3F80823114B587976
:1023AC0010B95A711B6898470F4B1A6872B100220A
:1023BC001A601B684FF08043D3F81824D3F8181414
:1023CC00920704D10122C3F818259A6010BD02228D
:1023DC00C3F80823034B01201B68BDE810401847C5
:1023EC0000010040E801002004010040012303FA31
:1023FC0000F010F0FF0F12D04FF02003EFF311811B
:10240C0083F31288BFF36F8F064AD36C23EA000064
:10241C00D06481F31188BFF36F8F03487047034872
:10242C00704700BFF00100200000AD0B0400AD0BA5
:10243C002DE9F0418646164E1648174F0024FF2210
:10244C000125E3B24FF02001EFF3118881F31288DC
:10245C00BFF36F8F22FA03F1C9070BD5F16C05FAA4
:10246C0003FC11EA0C0F01BF41EA0C01F164384680
:10247C008EF8003088F31188BFF36F8FB84205D007
:10248C0005FA03F39A4304F10104DAD1BDE8F081B3
:10249C00F00100200200AD0B0000AD0B0E4B70B52F
:1024AC0053F82040013053F82060A64200D870BD8C
:1024BC00D4E900352846984765B1EB6830B100285F
:1024CC00B8BF4042FF28A8BFFF2018705A7842F0CE
:1024DC0001025A700834E8E7A83B000010B500234D
:1024EC0086B00122CDE904230F22CDE902320C4C37
:1024FC000C4A01930C49182304EBC01403FB002372
:10250C004FF4A072009302FB0011084B204600F020
:10251C00A3F8637B23F00403637306B010BD00BF04
:10252C003000002040020020800600207D270000A3
:10253C0008B50A4B012202201A70FFF7AFFF00F01A
:10254C00F9FD0320FFF7AAFF00F0B4F8FDF742FFF6
:10255C00034A137B23F00103137308BD7B02002095
:10256C00B00000200248034A0021121A00F065BF97
:10257C00300000207C02002080B52F4FA6B087F3DE
:10258C0008882E4D2E4E6B69DFF8C88043F400731B
:10259C0000246B61E02385F82230EC772C766C7686
:1025AC00AC7685F820406B6A43F4E0236B6285F8C7
:1025BC002340FEF71DFEFEF721FC4FF0FF33AB620C
:1025CC00EB62FEF7C5FEFEF75BFE40F20113ADF8C1
:1025DC00243006ABB360CDE91F4401F061F820460E
:1025EC00FFF75CFF0120174DFFF758FF00F016FBBB
:1025FC00154B059301234FF4806214490094CDE9E7
:10260C000343CDE9014443462846F56100F024F824
:10261C006B7B23F004036B738146284601F0ADF805
:10262C002046FFF75BFF0A4BF360424649462846BB
:10263C0034757760FEF7C8FCC00F002000ED00E099
:10264C0040020020B0000020153C00008002002059
:10265C00300000203D250000F0B585B007320E9EFD
:10266C0006730426467300F158050D9E867322F0FE
:10267C000702C0E91655C0E9191200258E180C9AEC
:10268C008560C573C0E90655C56602920B9A019226
:10269C000A9A009232460446FEF77AFC044B6565B2
:1026AC009B6803B11B6F2367304605B0F0BD00BFBC
:1026BC00400200202DE9F0472A4E2B4D86B0B04643
:1026CC00B54205F1300410D300F00CF9264CDFF8BC
:1026DC009CA04FF4004940F2E7360027444521D333
:1026EC0006B0BDE8F04700F07DBA54F8043C059301
:1026FC0054F8103C049354F8143C039354F8183CCD
:10270C00029354F81C3C019354F8203C009354E978
:10271C000A2354E90C01FFF79FFF54F8303C5D6528
:10272C002546CDE7636A5A1C0DD023EAE373304685
:10273C003946C9FB0301B94208BFB042256804D130
:10274C00284600F0B1F93034C8E74FF47A72002310
:10275C00FDF7BEFC02460B4605F11800514600F091
:10276C00D1FBF0E73000002030000020A73700003C
:10277C0008B5094C4FF02002EFF3118382F3128855
:10278C00BFF36F8F01F086F8A061FEF7F3FA002813
:10279C00F0D1FEF739FBEDE74002002038B50446D6
:1027AC004FF02003EFF3118583F31288BFF36F8F83
:1027BC0001F042F848B10022826700F0DEFF2946A2
:1027CC000548BDE8384000F07BB8D4E902329A42A3
:1027DC0018BF0133A360F2E77C02002037B5144622
:1027EC001D464FF02003EFF3118183F31288BFF3E2
:1027FC006F8F836843B1013B836081F31188BFF312
:10280C006F8F002003B030BD54EA050306D181F36D
:10281C001188BFF36F8F6FF00F00F3E70246CDE91D
:10282C000045024800F09AF9ECE700BF7C0200205A
:10283C0010B5084C23685BB1FFF7A6FB2368064A6A
:10284C001844106100211846BDE8104001F032B860
:10285C0010BD00BF7002002040020020F8B50446F5
:10286C000E464FF02003EFF3118583F31288BFF36C
:10287C006F8F104B00224FF4004740F2E7300021DD
:10288C001A61E7FB040100234FF47A72FDF720FC78
:10289C00002C094B09DC1860084B1E60FFF7C8FFC1
:1028AC0085F31188BFF36F8FF8BD0228B8BF0220E3
:1028BC00F1E700BF40020020700200206C020020F3
:1028CC0049B9EFF3058030B9054BDA699B689A4238
:1028DC0001D0FEF70FBB81F31188BFF36F8F7047E8
:1028EC00400200204FF02003EFF3118183F3128894
:1028FC00BFF36F8F044B9A68D37B013BD37381F387
:10290C001188BFF36F8F70474002002038B5024624
:10291C000C480D4D00F02BFF044600B9EC68AB6879
:10292C004AB95A7BD20606D1A26922B9DA897F2A22
:10293C0001D9EB6138BD9C4201D0FFF779FFEC6106
:10294C00F8E700BF600200204002002070B5437B16
:10295C001A06014604D503F07F03437300F0DFFE33
:10296C004B7B154A63F07F034B73D2E9083502F1B8
:10297C00200083421BD0D3B191F90E6093F90E4025
:10298C00A6420FD0A41B002C0CDD5868C1E9003006
:10299C00016059609068431A58425841BDE8704034
:1029AC00FFF7B4BFAB4202D01B68002BE6D1C1E9E4
:1029BC00000529605162EDE74002002070B54FF030
:1029CC002003EFF3118483F31288BFF36F8F174A40
:1029DC00174993680D68AB42154606D1FFF728FFDF
:1029EC0084F31188BFF36F8F70BD00260E60114900
:1029FC000968C1B1D9897F2915D8597BC90612D16B
:102A0C000D4993F90E6009688E420CDB0B498B4221
:102A1C0009D01169814203DC1846FFF797FFDDE707
:102A2C00091A1161DCE700232B61D9E74002002071
:102A3C0068020020700200206C0200203000002090
:102A4C0070B4437B19062AD4DA0628D1826932BBCA
:102A5C0063F07F03134A4373D2E9083502F1200176
:102A6C008B4217D0B3B190F90E6093F90E40A64289
:102A7C000BD0A41B002C08DD5A68C0E90032106092
:102A8C005860002070BCFFF741BFAB4202D01B68FE
:102A9C00002BEAD1C0E9001528605062F1E770BC48
:102AAC00704700BF4002002010B54FF02003EFF339
:102ABC00118483F31288BFF36F8F437B590704D4BF
:102ACC0084F31188BFF36F8F10BD23F0040343739D
:102ADC00FFF7B6FF21460248BDE81040FFF7F0BEF5
:102AEC007C02002008B5437B1A06014604D503F08E
:102AFC007F03437300F013FE044B9868431A58424B
:102B0C005841BDE80840FFF701BF00BF400200205C
:102B1C002DE9F041064614461D464FF02003EFF315
:102B2C00118783F31288BFF36F8F00F05BFE87F37E
:102B3C001188BFF36F8F6B1C08BFB4F1FF3F08D037
:102B4C0022462B4606F118000349BDE8F04100F07F
:102B5C00D9B9BDE8F08100BFA737000010B5074B0D
:102B6C009868074B0C4618601146DDE90223FFF705
:102B7C00CFFF2046BDE81040FEF7BCB94002002054
:102B8C006802002070B50446183000F06DFE4FF05E
:102B9C002003EFF3118683F31288BFF36F8F637BEF
:102BAC001A0605D503F07F036373204600F0B7FDCA
:102BBC000B4D637BA86843F010036373031B5842EF
:102BCC005841FFF7A3FE86F31188BFF36F8FAB68F4
:102BDC00A34203D1BDE8704000F0BFBD70BD00BF83
:102BEC004002002010B54FF02003EFF3118483F363
:102BFC001288BFF36F8F084B9A68D37B0133D37362
:102C0C000020FFF783FE84F31188BFF36F8FBDE8BC
:102C1C00104000F0A2BD00BF40020020044B002178
:102C2C0003F12002C3E908220846FFF717BE00BFD4
:102C3C0040020020F8B54FF02003EFF3118583F329
:102C4C001288BFF36F8F1A498868437B03F07F03A8
:102C5C00437300F064FD8B685A7B084662F07F0278
:102C6C005A7350F8202F82421CD0DAB14F6A93F974
:102C7C000E6092F90E40A6420FD0A41B002C0CDD66
:102C8C005168C3E900210B6053600120FFF73EFE41
:102C9C002846BDE8F840FEF72DB9BA4202D01268BA
:102CAC00002AE6D14A6AC3E9000213604B62ECE7E2
:102CBC00400200202DE9F04106460F4656EA070176
:102CCC0004D1FFF7B7FF0020BDE8F0816FF00101E0
:102CDC000A1A4FF0FF3161EB0703012A73F100036D
:102CEC002ADA00F001FE84194FF02003EFF311886B
:102CFC0083F31288BFF36F8F114D124BA8681860C5
:102D0C00FFF7F0FEA868104932463B46183000F039
:102D1C00F9F8AA68537B43F0100353734046FEF74F
:102D2C00E9F800F0E1FD201A64EB0401012871F1CF
:102D3C000003B8BF0020C7E76FF00104241AD3E7E3
:102D4C004002002068020020A737000008B54B1C89
:102D5C0008BFB0F1FF3F06D1084B9868FFF712FF90
:102D6C004FF0FF3008BDFFF7A5FF4FF47A7380FBDF
:102D7C000323D00B40EA4340F4E700BF400200209D
:102D8C00014B9868704700BF400200202DE9F041CC
:102D9C0004464FF02003EFF3118683F31288BFF340
:102DAC006F8F437B1D0705D586F31188BFF36F8F9B
:102DBC00BDE8F08123F0200242F00802110620D475
:102DCC004273A36813B1204600F0B1FC04F1180063
:102DDC0000F04AFD04F158074FF00008A56DBD4204
:102DEC0000D0B5B90120FFF791FD104B9B68A342B1
:102DFC00DAD1EFF30583002BD6D13046FEF77AF803
:102E0C00D2E703F05F0343F00803437300F087FC41
:102E1C00D7E7284600F08BFC05F1180000F024FDE4
:102E2C00C5F878802846FFF70BFED7E74002002054
:102E3C0008B50648064A0749121A00F0F3FA064A82
:102E4C0006490748BDE8084000F0ECBA0000002035
:102E5C0030000020503C000000000000503C0000FE
:102E6C0000000020034B1B680BB9FFF78DB8002046
:102E7C00704700BF7402002038B5134B1C689C428D
:102E8C0008BF0024FFF7EEFFC4B1D4E90423141AE1
:102E9C0063EBE075012C75F1000312DB6FF000425F
:102EAC000023A242204673EB050400DA1046074BC0
:102EBC001B6913B19842A8BF184638BD6FF000408B
:102ECC00F5E70020F3E700BF1800002040020020C7
:102EDC0030B5036868B10A4A5268904209D043B1D0
:102EEC00D3E90421D0E90445121945EB0101C3E9EA
:102EFC000421426813605A600023C0E9003330BDDE
:102F0C0018000020B3F1FF3F08BFB2F1FF3F2DE9DD
:102F1C00F74F044692469B4675D081604FF02003D4
:102F2C00EFF3118583F31288BFF36F8F6FF00103FA
:102F3C00B3EB0A084FF0FF3262EB0B09B8F1000F4C
:102F4C0079F100011CDB3148D0E900105B1A62EB0F
:102F5C000002B3EB0A0662EB0B07012E77F10003BC
:102F6C00BCBF01260027C4E90467294AD2E9003C0A
:102F7C00934220D1C4E9002CCCF8004054602FE0DF
:102F8C00FFF770FF1AF1010300934BF1000301935B
:102F9C00DDE90023121843EBE07319461046C4E92F
:102FAC000401E2E7B6EB080067EB09019C45C4E9B4
:102FBC000401DFD01B68002BDCD0D3E90489D4E9F1
:102FCC000467464577EB0901ECDAB8EB060069EBD0
:102FDC000701C3E904015968C4E900310C605C6065
:102FEC00136893420BD09C4209D1FFF745FF18B1EF
:102FFC00084B1B69834202D00021FEF793FF85F337
:10300C001188BFF36F8F03B0BDE8F08F3001002043
:10301C0018000020400200202DE9F74F0446FFF76E
:10302C00CDFC4FF02003EFF3118583F31288BFF32F
:10303C006F8F2E4BDFF8B890DFF8B8A01C60984665
:10304C00CB46DAF80040D8F800C0D9E90023664630
:10305C005445CDE900234FEAE6770CD05CB1D4E9B6
:10306C0004128C4577EB02031CDAB1EB0C0062EB1B
:10307C000701C4E90401009BF218019B4FF0000406
:10308C0047EB0303CBE90023C8F80040FFF7F4FE3D
:10309C002146FEF747FF85F31188BFF36F8F03B00E
:1030AC00BDE8F08FDDE90067ACEB010076184FF05E
:1030BC0000024FF0000347EBE177C8F80000C4E9C9
:1030CC0004232046C9E90067FFF702FF85F3118846
:1030DC00BFF36F8FA36898474FF02003EFF3118570
:1030EC0083F31288BFF36F8FABE700BF740200202D
:1030FC0030010020180000202DE918484FF0200363
:10310C00EFF3118483F31288BFF36F8FFEF73CFF4C
:10311C00074BD3E9002312EB000B43F1000C58468C
:10312C00614684F31188BFF36F8FBDE8188800BF28
:10313C0030010020024A0349034800F027B800BFC1
:10314C004E3C00001A3C0000283C000060B1436873
:10315C0003F00303012B03D0032B05D103681BB130
:10316C0000238360184670476FF015007047426863
:10317C00816002F00302032A4FF0000203460CBFE9
:10318C00006810465A607047002070470FB407B5AE
:10319C0004A951F8040B0191FDF73CF903B05DF85B
:1031AC0004EB04B07047038B13F0070305D10368DD
:1031BC00002B0CBF002003207047022B05D1438B42
:1031CC00002B14BF002004207047012B05D103688D
:1031DC00002B0CBF002005207047002070472DE904
:1031EC00F0410D4607461946281D90461E46FFF72E
:1031FC00BEFF044638B13346424629463846A446FB
:10320C00BDE8F0416047BDE8F08110B44FF02004F8
:10321C00EFF3118284F31288BFF36F8F416110BCFE
:10322C000121FDF705B910B50C4640B139B1081DA7
:10323C00FFF78CFF28B9A36833F0030301D06FF0BC
:10324C00150010BD38B50C46054658B151B10B6888
:10325C0043B14B6833B11C22002100F0EEF82C6115
:10326C00002038BD6FF01500FBE770B504460D4625
:10327C00FFF7D9FF061E31DB4FF02003EFF311816E
:10328C0083F31288BFF36F8F638B208B4FF6FF761F
:10329C00B34200F007022ED0022A0ED10133638311
:1032AC001646012381F31188BFF36F8FB3B100234E
:1032BC0029462046FFF793FF10E0830701D0062A2A
:1032CC000ED100232B60636893B9C4E900551646F0
:1032DC0062B90A4620460221FDF7AAF8304670BDB5
:1032EC00052A0CBF6FF085066FF004060023D9E7A2
:1032FC001D606560EBE76FF00A06F7E7044608B55A
:10330C00084611461A46A047FFF73AFDFDF7A6FFFF
:10331C002DE9F74F9946D37814466F2BA3F1410250
:10332C0006460F4601922DD028D8582B0CBF1025DD
:10333C000A25DDF83080AA464FF0000B52465B465A
:10334C0030463946FCF7C4FE092AD3B221D83033B3
:10335C005F45DBB208BF564508F8013D01D3C845AF
:10336C0014D823789B0605D5082D18D1A37843F0E3
:10337C000803A370404603B0BDE8F08F702B03D058
:10338C00782BD3E70825D4E71025D2E706460F465D
:10339C00D4E7019A192A94BF37335733D8E7102D45
:1033AC00E8D1A37843F01003E3E72DE9F041074699
:1033BC00884615461E461446B442A4EB050002D3BB
:1033CC003EB923782BB1414614F8010BB8470028BD
:1033DC00F2DABDE8F08170470022C0E90022826079
:1033EC00704700F074B90146006800F070B9002114
:1033FC000120FFF7F6BF08B5FDF754FDBDE8084006
:10340C00FDF714BE0023C25C0AB91846704701339D
:10341C00F9E70023C25C0AB18B4201D11846704710
:10342C000133F7E710B5431E0A44914200D110BD99
:10343C0011F8014B03F8014FF7E7C9B202440346F8
:10344C00934200D1704703F8011BF9E74FF0FF30AE
:10345C00704784B004AB03E907009DF80430062BD9
:10346C0008D14FF080430122C3F80025BFF34F8FE2
:10347C0020BFFDE704B0704784B004AB03E907003C
:10348C00002383F31188BFF36F8F04B07047026978
:10349C00C9B20C2301FB0323186C00F00700704722
:1034AC004FF02003EFF3118283F31288BFF36F8F79
:1034BC00036813F0C00301D08B4207D101230360D2
:1034CC00002082F31188BFF36F8F70474FF0FF30ED
:1034DC00F7E710B54FF02003EFF3118283F3128856
:1034EC00BFF36F8F036803F00704012C06D1016052
:1034FC00002082F31188BFF36F8F10BD03F0C0035F
:10350C008B4214BF4FF0FF306FF07700F1E74FF0B4
:10351C002003EFF3118283F31288BFF36F8F0368DC
:10352C0003F0C00343F00203036082F31188BFF37E
:10353C006F8F7047036910B41C20CCB204FB0030B1
:10354C00002110BC10470020FEF7D6BE1046FFF736
:10355C0025B92DE9F843CEB20C250469754307460D
:10356C0005F140008021204491469846FFF7B1FFB9
:10357C00002807DB2C44C4E90E987B6853F83630DE
:10358C0098470020BDE8F88338B5CCB20C2305462B
:10359C0063430069403380211844FFF781FF002802
:1035AC0005DB696801EBC4014B689847002038BD06
:1035BC0000F01F00800000F1A040D0F8003723F489
:1035CC00403343EA0141C0F80017704743685B6819
:1035DC00D3F810350B600020704743685B68D3F854
:1035EC00040542400A404240C3F8042500207047BD
:1035FC0043685B680020C3F80815704743685B6834
:10360C000020C3F80C15704743685A68D2F804358B
:10361C005940C2F80415002070470369586830B54A
:10362C0058B10024814213D108685CB99C68586079
:10363C00A14200D198600020086072B9002030BD12
:10364C002846EFE720609868814208BF9C60F2E74B
:10365C0005680446002DF3D13AB15A680A6098689F
:10366C0059600028EAD19960E9E76FF01500E6E7A8
:10367C0002690B4692E8030083E8030000207047C0
:10368C0070477047004700F033B908B50020FDF7CC
:10369C00E3FB18B9BDE80840FDF7CEBB08BD704789
:1036AC00704738B1C3681888C0F30800A0F5807360
:1036BC005842584170474FF02002EFF3118382F3C8
:1036CC001288BFF36F8FFEE708B5FFF7F4FFF8B56C
:1036DC0006460F464FF02003EFF3118583F3128853
:1036EC00BFF36F8FFFF74CFB394604463046FFF7AC
:1036FC00EBFF85F31188BFF36F8F2046BDE8F840D0
:10370C00FDF7ACBDEFF30580003018BF012070470A
:10371C0008B5FDF709FBBDE80840FFF7B2BFD0E9DB
:10372C00003213605A600023C0E90033704708B5BB
:10373C00FFF7F5FF437B23F0020343730023836001
:10374C0008BD034620B9EFF305820AB9FDF7D2BBD9
:10375C0083F31188BFF36F8F70474FF02003EFF3A3
:10376C00118083F31288BFF36F8FFFF7EABF0368F2
:10377C00984214BF18460020704710B54FF0200334
:10378C00EFF3118483F31288BFF36F8FFFF758F9AF
:10379C0084F31188BFF36F8F10BD38B501464FF01D
:1037AC002003EFF3118583F31288BFF36F8F10F8AA
:1037BC000B3C13F0280F10D150F8103CA0F118045A
:1037CC0013B12046FFF7B3FF11F80B3C23F01403A1
:1037DC0001F80B3C2046FFF733F985F31188BFF352
:1037EC006F8F38BD38B504460D46FFF77BF9637B08
:1037FC0043F00203637395B12B68A5609D4215D00D
:10380C00A3B194F90E1093F90E20914208D0521ADC
:10381C00002A05DD5A68C4E9003214605C6038BDCA
:10382C006A68934202D01B68002BECD16B68C4E928
:10383C0000531C606C60F2E738B54FF02003EFF3D7
:10384C00118583F31288BFF36F8FFFF790FF044647
:10385C0020B1FFF76CFF183000F006F885F31188E3
:10386C00BFF36F8F204638BD10B54FF02002EFF339
:10387C00118482F31288BFF36F8F03683BB1FFF79B
:10388C0027FB002084F31188BFF36F8F10BD6FF0FE
:10389C001500F7E710B54FF02003EFF3118483F315
:1038AC001288BFF36F8FFFF7E7FA84F31188BFF329
:1038BC006F8F10BD70B504460E464FF02003EFF32A
:1038CC00118583F31288BFF36F8FFFF7D5FA0128A8
:1038DC0005DDA04203DB31462046FEF723FB85F3D2
:1038EC001188BFF36F8F70BD08B5FFF705FC08BDDD
:0C38FC0008B1FDF779BD7047FEF77ABBFC
:0839080004C8FF7F010000006C
:10391000C513000000000000A91400004039000099
:10392000591D0000583900004D170000000000002C
:10393000DD1E000070390000A51700008839000066
:10394000F73B0000483B0000343B00002000002013
:103950005C010020EA3A0000043C00000000000086
:10396000943B0000280000200C000020E23A0000F8
:103970000B3C000000000000000000002C000020B4
:1039800000000000DE3A0000FD3B0000883B000024
:10399000643B000024000020B8010020D83A000059
:1039A000912300009136000000000000FB3300006E
:1039B00000000000FB33000000000000FB330000AB
:1039C00000000000FB33000000000000FB3300009B
:1039D00000000000251A000000000000FB3300007A
:1039E00000000000FB33000000000000FB3300007B
:1039F00000000000FB33000000000000FB3300006B
:103A000000000000FB33000000000000FB3300005A
:103A100000000000FB33000000000000FB3300004A
:103A200000000000FB33000000000000751E0000D5
:103A300000000000FB33000000000000FB3300002A
:103A400000000000FB33000000000000FB3300001A
:103A500000000000FB33000000000000FB3300000A
:103A600000000000FB33000000000000FB330000FA
:103A700000000000FB33000000000000FB330000EA
:103A800000000000FB33000000000000FB330000DA
:103A900000000000FB33000000000000FB330000CA
:103AA00000000000FB33000000000000FB330000BA
:103AB00000000000FB33000000000000FB330000AA
:103AC00000000000FB33000000000000FB3300009A
:083AD00000000000FB330000C0
:103AD800FF7FFF7FFF7FFF7FFF7FFF7FFF7FFF7FEE
:0A3AE800FF7FFF7FFF7FFF7FFF7F5E
:103B00000338FDD8704700000000002000000000CE
:103B100000000B06020000001C3B0000000000003B
:103B2000E83B00002400020700000020F03B0000FA
:103B30001E000B110D160000953500005F350000CA
:103B4000000000009B34000061150000E11500003A
:103B5000091500005335000051140000091400003D
:103B6000000000006D190000D9350000E7350000A5
:103B7000FD3500000936000015360000D51700009D
:103B80002736000000000000FFFFFFFF000000508C
:103B900000000000411B0000D91C0000651B000054
:103BA000751B00007D360000103900003039000020
:103BB000383900004039000040390000F5FFFFFFB0
:103BC0006E726635323833325F6D646B0048656CF7
:103BD0006C6F206E524620576F726C6421202573E3
:103BE0000A00286E696C2900464C4153485F30003A
:103BF0005352414D5F3000434C4F434B00475049B7
:103C00004F5F3000554152545F30007379735F63EA
:103C10006C6F636B006D61696E007A6570687972B4
:103C20002D763230373031002A2A2A20426F6F74C5
:103C3000696E67205A6570687972204F53206275EB
:103C4000696C64202573202573202A2A2A0A000023
:103C500095310000010000005934000000C201004D
:103C6000000103000090D00318000020180000207D
:103C70000000000000000000000000000000000044
:0400000300001239AE
:00000001FF
