:100000000C9453000C949C010C949C010C949C0146
:100010000C949C010C949C010C947F010C949C0109
:100020000C949C010C949C010C949C010C949C01DC
:100030000C949C010C949C010C949C010C949C01CC
:100040000C949C010C949C010C949C010C949C01BC
:100050000C948E010C949C010C949C010C949C01BA
:100060000C9489010C949C010C949C010C949C01AF
:100070000C949C010C94FA000C949C010C949C012F
:100080000C949C010C949C010C9484010C9493019D
:100090000C949C010C949C010C949C010C949C016C
:1000A00028002802800011241FBECFEFCDBFDFE360
:1000B000DEBFE0EAF0E040E017C0B591A5913591D0
:1000C0002591059107FD0CC095918591EF01F92FC0
:1000D000E82F05900D92A217B307D9F7FE0104C0CF
:1000E0001D92A217B307E1F7E53AF40731F70E9432
:0A00F00050010C946D01F894FFCF4D
:1000FA000F931F93CF93DF9340E054E0FA011082ED
:10010A0020E234E0F901108280E494E0FC011082DC
:10011A00C0E6D4E01882A0E8B4E01C9200EA14E039
:10012A0060E2F8016083FA011482F9011482FC0189
:10013A0014821C8214961C921497F8011482FA01F4
:10014A00108A118A128A138A148A158A168A178AB9
:10015A00F901108A118A128A138A148A158A168A50
:10016A00178AFC01108A118A128A138A148A158A3C
:10017A00168A178A188A198A1A8A1B8A1C8A1D8A59
:10018A001E8A1F8A50961C92509751961C9251971C
:10019A0052961C92529753961C92539754961C92BD
:1001AA00549755961C92559756961C925697579661
:1001BA001C92F801108A118A128A138A148A158AE3
:1001CA00168A178AE0EEF5E01182108214821582EF
:1001DA001382128280EA91E080930028909301288A
:0A01EA00DF91CF911F910F9108954E
:1001F4001F920F920FB60F9211242F933F934F9398
:100204005F936F937F938F939F93AF93BF93EF937A
:10021400FF93BD9B05C0E0910028F091012809954A
:100224008FEF87BBFF91EF91BF91AF919F918F911A
:100234007F916F915F914F913F912F910F900FBEDE
:060244000F901F901895B9
:10024A0040E068ED80E690E00E94980141E168EDA7
:10025A0081E690E00E94980140E068ED82E690E035
:10026A000E94980140E068ED83E690E00E949801C0
:10027A0040E068ED80E790E00E94980140E068ED78
:10028A0088E790E00E94980140E068ED8CE790E0F2
:06029A000E949801089586
:1002A0000E94780180E28093A604E7EAF4E080836C
:1002B0002AE634E091E0215030409040E1F700C060
:0202C000F6CF77
:1002C20040E068ED80E191E00E949801E0E1F1E018
:0802D2001282138280E00895FE
:1002DA00EC010E94A2010E94A101CE010E94A30189
:0602EA00CE010E949E01FE
:0E02F0000E9425010E947D000E946101089578
:0A02FE008F938FEF83B98F9118954D
:0A0308008F938FEF87B98F9118953E
:0A0312008F938FEF8BB98F91189530
:0A031C008F938FEF8FB98F91189522
:0A0326008F938FEF83BB8F91189522
:08033000FC0164BF4083089545
:040338000C94000021
:04033C000E947B00A0
:0203400008951E
:0203420008951C
:0203440008951A
:02034600089518
:02000004008278
:090000000000020000C00700002E
:00000001FF
