:08000000803102288731F52F41
:100C5200F100710886315226863108006400800155
:100C62000131890B302E0034623031008D008F014A
:100C7200910102309300920108008631A426863148
:100C820086313526863186315C26863108008631EA
:100C920067268631F200F3017208F0007308F10052
:100CA2000800F0002E000F1E572E582E532E7008EB
:100CB20022009A000800093022009F0090309D0017
:100CC20024309E000C309B009C0108002E008F1ED9
:100CD2006B2E6C2E672E22009D1C702E712E732E91
:100CE2001D121D161908080054302000D4000030CF
:100CF200CD00CE005308D0005208CF005430D100AE
:100D0200863185268631080020005008FD004F08F4
:100D1200FC00972E20004E08C6004D08C5007C300E
:100D2200C7005108C8008631DA2686317C08840063
:100D32007D0885001200031D9F2EA02E8B2E200001
:100D4200CD01CE0108002000960197019801F030F4
:100D52009100FF309200FE309300FD303E00CE0045
:100D6200FF30C300FF30B800E501C401B901CF0173
:100D7200BA01C501D00100308B1B0130F0008B138A
:100D820055303D008F00AA308F000F1010303E000A
:100D9200A0003D004B08E0391138CB0055308F00E0
:100DA200AA308F000F14700C031C8B1303188B17BF
:100DB20008002000470886008701403FC900413FE4
:100DC200CA00490884004A0885001200253A031D1A
:100DD200EB2EEC2E092F4708860087010130810790
:100DE20041310318810AC001C10103100030031808
:100DF2000130C400FF30C200FF30C30020004708AA
:100E0200860087010130810741310318810A232FAF
:100E1200470886008701403FC900413FCA00490890
:100E220084004A0885000008CB00CC014B08F20080
:100E32004C08F3004608F5004508F40087312427E2
:100E42008631FF2E0800740875040319292F2A2FF2
:100E5200302F74087504031D2F2F302F352F720881
:100E6200863129268731802F74088600750887000D
:100E720049311600010403193F2F402F602F7408D7
:100E82008600750887004931403FF600413FF70070
:100E920074088600750887004231403FF800413FE0
:100EA200F9007908803AFA007708803A7A02031D3D
:100EB2005C2F7608780203185F2F602F802F74084A
:100EC2008600750887004231740884007508850021
:100ED200403F0007F6000131413F003DF700760830
:100EE20086007708870072088100740886007508FA
:100EF200870042310130810741310318810A08001D
:100F020086313E268731DD2F03102000161C031484
:100F120003188C2F8F2F20001614912F20001610EB
:100F22002430D2008830D300863175268731DD2FF8
:100F320003102000961C03140318A02FA32F2000D7
:100F42009614A52F200096103430D2008830D3009A
:100F5200863175268731DD2F03102000161D0314FC
:100F62000318B42FB72F20001615B92F2000161121
:100F72004430D2008830D300863175268731DD2F88
:100F820003102000961D03140318C82FCB2F200036
:100F92009615CD2F200096115430D2008830D30000
:100FA200863175268731DD2F00302000D20088304F
:100FB200D3008631752687318631482687317108FC
:100FC200003A0319E52FD52F7008313A0319852FFE
:100FD200033A0319992F013A0319AD2F073A03195E
:100FE200C12FD52F803102282030840000308500A7
:100FF200253086312F26873120008731812F0A3410
:101002005434793470346534203431342C343234ED
:101012002C3433342C3420346F347234203434344E
:10102200203474346F34203474346F34673467344A
:101032006C34653420344C344534443473342034B5
:1010420020340A34003454346F34673467346C34D7
:101052006534643420344C344534443420344434CC
:1010620032340A34003454346F34673467346C34A5
:101072006534643420344C344534443420344434AC
:1010820033340A34003454346F34673467346C3484
:101092006534643420344C3445344434203444348C
:1010A20034340A34003454346F34673467346C3463
:1010B2006534643420344C3445344434203444346C
:0610C20035340A3400344D
:020000040001F9
:0A000E00EC3FFF3B9F3FFF3FFF3F29
:00000001FF
