:100000000EC028C028C0C9C025C024C023C022C03B
:1000100021C020C01FC01EC01DC01CC01BC0112499
:100020001FBECFE5D2E0DEBFCDBF10E0A0E6B0E05E
:10003000EAEAF2E002C005900D92A436B107D9F7C2
:1000400020E0A4E6B0E001C01D92A836B207E1F7B7
:1000500025D129C1D5CF1F920F920FB60F9211242F
:100060000F900FBE0F901F901895C09888E085BB29
:100070008BB780628BBF85B7877E806185BF85B770
:10008000806285BF889585B78F7D85BF49D08823DD
:1000900091F38BB78F7D8BBFAB980895CF92DF9292
:1000A000EF92FF92ABD06091640080E0B0D081E02D
:1000B00090E04AD0C12CD12C760182E37DD080E043
:1000C00090E042D0823011F18130A1F4809164003F
:1000D000833029F460E09BD01092640017C061E087
:1000E000680F95D0809164008F5F80936400C12C6D
:1000F000D12C76018FEFC81AD80AE80AF80A80ECEA
:10010000C8168DE5D806E104F104B9F660E08091E7
:1001100064007DD079D0FF90EF90DF90CF900EC03B
:10012000CF93C3E096B3892F887093FF05C085E015
:1001300043D0C150B9F781E0CF910895B39B03C07C
:1001400082E33AD0FBCF0895892B21F0F7DF10929C
:1001500066000CC096B3987080916500883040F0BE
:1001600090936600911102C01092650080E008959E
:1001700020916600921741F01092650090936600FE
:1001800081E0992349F0F2CF992381F38F5F809327
:100190006500883059F782E008951F920F920FB6DC
:1001A0000F9211248F9381E0809367008F910F90BD
:1001B0000FBE0F901F90189510BE98B7906498BF0F
:1001C0008EBD1FBC882319F089B7806489BF109247
:1001D00067008BE080BF85B7877E85BF85B780626B
:1001E00085BF889585B78F7D85BF809167008823FF
:1001F000A9F389B78F7B89BF10BE089519BC83E826
:100200008ABD81E083BF089513BEC0980895EF9220
:10021000FF921F93CF93DF93E82F082E000CFF0B64
:10022000E05AFF4FC081E62F062E000CFF0BE05A6C
:10023000FF4F1081633021F0833011F0D1E001C015
:10024000D3E0C117A8F4E12EF12CED1AF1088C2FA0
:1002500090E0E816F9062CF0C9BD81E0ADDFCD0FC6
:10026000F6CF19BDDF91CF911F91FF90EF900895C8
:100270001C17B8F7ED2E0D2E000CFF08E10EF11C37
:100280008C2F90E08E159F0564F3C9BD81E094DF4B
:10029000CD1BF6CF81E087BB18BA0895FBDF7894B9
:0A02A000E4DEFCDEFDCFF894FFCF92
:0402AA00010628FF22
:00000001FF
