:020000020000FC
:100000000C94B5001895189518951895189518958D
:100010001895189518951895189518951895189578
:100020001895189518951895189518951895189568
:1000300018951895189518950C94610B0C94630BF2
:100040000C94650B0C94670B0C946A0B0C946C0B62
:100050000C946E0B0C94740B0C947A0B0C94800B18
:100060001895189518951895189518951895189528
:100070001895189518951895189518950C94BE16FE
:100080000C940A1718951895189518950C946D08E6
:1000900018951895189518951895189518951895F8
:1000A00018951895189518951895189518951895E8
:1000B0000C94A201189518951895189518951895EF
:1000C00018951895189518951895189518951895C8
:1000D00018951895189518951895189518951895B8
:1000E00018951895189518950C949F0B0C94A10BC6
:1000F0000C94A30B0C94AA0B0C94AC0B0C94D20B89
:100100001895189518951895189518951895189587
:100110001895189518951895189518951895189577
:100120001895189518951895189518951895189567
:100130001895189518951895189518951895189557
:100140000C94930140E04BBFF80158ED54BF20835D
:1001500008954091CA01E22FF32F0093CA01049140
:100160004093CA0108950C946A1B0FEF0DBF03E280
:100170000EBFC0E0D1E20E94121B002311F00E94CA
:100180003A1B0E947A090E94101B0C94B3004A95F6
:1001900012F0000FE1F70895149F102D059F100D28
:1001A000049F002D110D08954A951AF0000F111F9C
:1001B000FBCF08954A951AF016950795FBCF089541
:1001C00000241124EFE0001F111F001C111C041655
:1001D000150610F0041A150AEA95AAF7001F111F58
:1001E000A0010095109508952224349F302D259F5D
:1001F000300D169F300D079F300D249F202D310D9F
:10020000159F200D311D069F200D311D149F102DAF
:10021000210D321D059F100D211D321D049F002D43
:10022000110D221D321D08954A952AF03695279505
:1002300017950795F9CF0895002411241001E0E2E5
:10024000EA9592F0001F111F221F331F001C111C82
:10025000221C331C041615062606370688F3041ADA
:10026000150A260A370AECCF001F111F221F331F61
:10027000A001B10100951095209530950895AF9398
:10028000BF93D8013BBF07900D9241505040D9F722
:10029000BF91AF910895CA92BA92AA929A928A9205
:1002A0007A926A925A924A92BA93AA939A938A93AA
:1002B0000895CC84BB84AA84998488847F806E80CE
:1002C0005D804C80BB81AA8199818881F0E0EC0F30
:1002D000FD1FEF0108959A938A93002329F00A9550
:1002E00041F00A9551F00EC021E215D020E210D065
:1002F0000BC025E210D024E2FACF2FE20CD02EE280
:1003000007D002C080E090E08C0189919991089516
:1003100007D0802F089530E003D0902F30E008956B
:1003200002E00C94A90034D040912402509125029F
:1003300021E000E012E0E2EFF6E20080118022808E
:100340000FD0189525D0409164025091650221E0AC
:1003500000E412E0E2EFF6E2038014802580F0CFA3
:10036000F0012CBE1995ACBF9BBF8FBF09911991AD
:1003700029913991499159916991799109901990EF
:1003800029903990E991F99189919991A9910895CC
:10039000AA939A938A93FA93EA933A922A921A9298
:1003A0000A927A936A935A934A933A932A931A93A6
:1003B0000A938FB79BB7ACB708955BD059F42FD091
:1003C0000081102F13951083002389F412E001E0BF
:1003D0000C943A0B4BD059F422D00181102F139575
:1003E0001183002321F412E002E00E943A0B0895E9
:1003F00040D049F414D000810A95008379F412E0CA
:1004000001E00C94420B32D049F409D001810A95E5
:10041000018321F412E002E00E94420B0895E0EF14
:10042000F6E208950E945401D8018FB758D00C917C
:1004300001600C9314D0139511830FBFE4E00C946A
:1004400062018A938FB7F894F80120812E7F208370
:1004500045D005D01A9511830FBF899108958FBF9C
:100460000FB7F894E3E1F9E21181089500341240E6
:100470000895003022E0120708953ED0C801D90146
:10048000003002E0900711F400E004C080349007CF
:1004900019F501E020DF38014FB6F8948C0120D027
:1004A00002E0FC01008364867586FD0104811581EC
:1004B000FC01008F118FFD010181FC010283FD0110
:1004C0000381FC010483FD010281FC0103830C9183
:1004D00001838C0103D04FBEE8E00CC089CFF894B3
:1004E0006CCF0AD0C8013A01280100E2400E00E0BA
:1004F000501E04D00C945E010C945001AFB7F894D8
:10050000082FEEDFF3010081F2010083F301028185
:10051000F2010283F3010181F20101838C0168DFA2
:10052000AFBFE8E008952FB7F894322FE2EFF6E27C
:10053000A0DF21F440835183628305C097DF19F463
:100540004383548365833FBF0895BA93FA2FD8013C
:1005500000E016E32EE631E00E941C01053020E0A9
:10056000120710F400E01FC00930120710F401E078
:100570001AC00131120710F402E015C0013212074F
:1005800010F403E010C00134120710F404E00BC0B3
:100590000138120710F405E006C00130114010F4D4
:1005A00006E001C007E013960C93AF2FB9910895B0
:1005B000F8015081597E532B522B508321812F7883
:1005C000242B21830895222319F0225029F0089525
:1005D0000AD020E02283089506D0440F440F440F30
:1005E000432B42830895F8012081277F20830895BB
:1005F000F801283038F000E000832850220F220F45
:10060000220F2AC0220F220F220F383019F401E0E6
:10061000008322C0343018F402E000831CC0425032
:10062000A1F0425081F0445061F0485041F04051F7
:1006300021F0405261F408E10BC004E109C000E17F
:1006400007C00CE005C008E003C004E001C000E002
:10065000036000833450232BB4CF20E0E6E1F4E2C2
:10066000408151814017510710F40BEF0895422F3C
:100670002395542F550F550B440F551FFA01EA5E71
:10068000FB4D408151810417150788F32650022F36
:10069000089500910B2408950BD0018512850895CB
:1006A00007D005851685089503D00785108908951C
:1006B000E0E0F4E20895BA93AA934E3C00E05007BC
:1006C00018F04D5C504002C040E050E08A0120E04C
:1006D00030E0A0E0B4E26091152470E0FD01E60F87
:1006E000F21F6189662359F06A9589F06A9519F0BD
:1006F0006A9599F017C0FD014187528713C0ADDF9D
:10070000102F110F110BFD01038714870BC048EE4A
:1007100053E025D00587168705C040E45FE11FD070
:100720000787108BFD0105890395058B0430A8F41C
:1007300065D040E030E020E003E014E239DF23E060
:1007400034E25ED00091152410E0FD01E00FF11FAE
:1007500021898D014DDFAD0164D0A99127CF60E0E3
:100760000E94F4004CE00E941401FD0108952ED077
:100770000E9412024ED040E45DE063E070E003E0CE
:1007800014E2E3DE48D01FDF93DF048101600483BD
:1007900023E034E21BD00E943D024BE553E060E0D1
:1007A00015D00E94930241E038E022E024D000916D
:1007B0000224007F01600093022440E054E220E024
:1007C00005D00C94710202D00C94210200E412E0D6
:1007D000089500E00093152411D01BD023E034E2EB
:1007E0000FD0E0911524F0E0E050FC4D218903D0BA
:1007F00040E054E216C000E014E2FACEE7DFE4CFB6
:10080000E5DF0E943D02E2DF0E94120241E038E093
:10081000089501D0CDCE40E030E020E003E014E2C6
:10082000089520E0D3DF0E9471021FB7F894E0E43E
:10083000F2E00081046000831FBF08951AD00E9477
:10084000A11400E00A930A930A930A931BE127EB91
:100850000A932A931A930A9340E006D00C94B11499
:100860000C94F5140C94F81426E834E202C00C94AD
:10087000DF1400EA18E008950C94C314DFDF6DD094
:10088000BFC01123F1DF09F0EBCFECCF229700E0DE
:10089000088311E00DD02BD010E000E0C9D0088112
:1008A0000C730C3310F400E001C001E022960895AF
:1008B000BFD007ED0983F1D02F5F3F4FA4C022972F
:1008C00011E010D0660F441F042FF2DF10D0088112
:1008D00007FFFCCF01D0EACF10E004D0660F441F21
:1008E000042FA6C0E8EFF6E2628143810895D5D0D7
:1008F000C0DFBDCF3CD005D0002309F081C000E0AF
:100900000895BA93AA932B9770D085D002ED0E83E9
:10091000C4D02A5F8ED00D83C0D02B5F79D00C83DA
:10092000BCD02C5F72D00B83B8D02D5F11D00A835E
:10093000B4D02E5F0DD00983B0D02F5F09D0ACD0DA
:1009400008D00F83AAD0295F3F4F59D02B9696C06D
:100950003F4F59D005E50895BFDF00E00093FC2626
:10096000089505D00CD0002309F04AC0C8CF322F1B
:10097000212F102F00E0110F221F331F0895BA936B
:10098000AA932C9732D047D003E50B8786D0255FFA
:100990003F4F06D111975CD000E0187F0F8353D0F2
:1009A0000E837BD02A5F34D00D8377D02B5F2DD080
:1009B0000C8373D02C5F81DF10E06D914C91119707
:1009C0008DDF7DDF2ED08ADF02E80B8366D02D5FBE
:1009D00030D00A8362D02E5F1BD009835ED02F5F98
:1009E00014D05AD00CD02C9649C04ED00D931D93E4
:1009F0002D933C931197D0D009F061DF089503D077
:100A000001E008953F4F35DF37CFFCDF0F810895B8
:100A1000F9DF0885089500E00093FC2602D0660FF8
:100A200005C011E06D914C9113970895441F042F58
:100A300028CF3F4FB5D013970BD0187F4D915D91C4
:100A40005370152B4F83188729873A870985089596
:100A5000000F111F91CF15D003C000E0088321D0F3
:100A60000D911D9112971170012BB9F710E012969C
:100A70006D914C91660F0DD000C02196A991B9914E
:100A80000895BA93AA932197A8EFB6E20895660F46
:100A9000432FCCDF01E062CF088341E050E09E01AC
:100AA0000895FBDF7DD00F5F1F4F41D00E93089557
:100AB0009A938A93C80105C01AD01CD018D00E94FE
:100AC000F705FC010197EF2BB9F701E089919991A6
:100AD00008959A938A93C80105C009D00E94170609
:100AE00006D02DD0FC010197EF2BB9F7EECF0DEF1B
:100AF00016E208950E94500143D069F02EDF08C02D
:100B000040E052E09C0119D010D00BD021F424DF3A
:100B10000D912ED0F6DE2ED098F301E0E8E00C9493
:100B20005E0111971370012B089500501E4F2F4F37
:100B30003F4F3C932E931E930895DADE32C00E94FD
:100B400050011ED079F011D00DC040E052E09C0160
:100B500027D0EBDF9E5FE5DF29F410E012966D9160
:100B6000139795DF07D088F3D8CF01D008CF0D9128
:100B700019D05ACFFCDF0415150526053705089551
:100B8000C80182DF4D905D906D907C90139702E0DC
:100B9000500E00E0601E701E0091FC260023089598
:100BA00032DF0D911D912D913C9108950E944604D4
:100BB000002309F00BC002E008954FEF5FE360E00F
:100BC000F801408351836283638300C000E008958D
:100BD0001FD010F001E008C00E947A048C010E942E
:100BE00058050E94AC0400E0E3E00C94630122D0BD
:100BF00001E00C94D6120CD010F001E008C00E9465
:100C0000B1048C010E9469050E942B0500E0ECCF25
:100C10000E945501CA01A0E0A801B901480F591F5F
:100C20006A1F7A1F4130504460407040089502D0DE
:100C300000E0DFCF40E04A934A934A9352E09801A4
:100C40000895002311F040E101C040E0112311F0AC
:100C500008E001C000E0332311F060E401C060E06F
:100C6000402B462B44604093000D2F732093020DC0
:100C700008950093030DE1E0FDE0008103FD16956A
:100C8000112321F01A95103208F01FE1110F110FF6
:100C9000110FE3E00081012B00830895E0E7F0E00D
:100CA00000810F77008300914300017F0160009372
:100CB000430030E028E210E000E0C3DF08EB0093DF
:100CC000010D10E100E0D5DF0091050D0C7F016002
:100CD0000093050D0FB7F894E3E1F9E21381139542
:100CE00013830FBFE0E0FDE000810268D5CF8A9357
:100CF000802F1DE040D01EE003E03ED011E13BD04C
:100D000012E103E039D015E136D016E103E034D02A
:100D100019E131D01AE103E02FD010E02FD0813E4D
:100D200018F01AE125D002C0813C18F019E126D054
:100D300002C0813A18F016E11BD002C0813818F0C9
:100D400015E11CD002C0813618F012E111D002C0AA
:100D5000813418F011E112D002C0813218F01EE087
:100D600007D002C0882311F01DE008D089910895B2
:100D700003E00C94BB0800E00C94C50800E0F9CF38
:100D80000A3008F4005D102F1A50163008F4095C80
:100D900008950E9454012597C80140E157E248D0C8
:100DA000088300E117E23CD048EE53E08C0140D0CC
:100DB000098308EE13E034D044E62ED0D801012B8D
:100DC00019F40981003211F031D001C000E20A8328
:100DD00004E610E025D04AE01FD0A02F012B31F40B
:100DE0000A81003219F40981003211F01FD001C0CC
:100DF00000E20B83082F1AE0A19F001918D00C8382
:100E000061E045E050E09E011AE000E40E94A30882
:100E10002596E4E00C94620150E08C010C94E00013
:100E2000AD010E94CC00801B910B08950A2FA8CF22
:100E30000E94E000D801012B09F0F8CF00E20895EC
:100E40000FC0002311F40C94D6050AC0002319F436
:100E500089010C94DD0504C0002311F40C94E6050F
:100E600001E00895002319F407E814E2089500E072
:100E700010E008950A01002329F4A90180019B01D3
:100E80000C94E805EDCF0A01002329F4A9018001A3
:100E90009B010C94FB05E4CF002E532F622F402FB3
:100EA00047701AD0202F069406940694002D17D070
:100EB0001A5F462F0C9449089801069506950695E9
:100EC0000ED0F801FA5F2770422F06D0332311F0BD
:100ED000058308950683089501E00C94C70010E08F
:100EE00045E00C94D400F8014E380BE5500700E0C3
:100EF0006007700718F431D0076008C047330EE66A
:100F0000500701E02DD020F428D00660008308951A
:100F1000493D08EB500705E023D018F41ED00560CA
:100F2000F5CF413C06EC50070DE21AD018F415D06D
:100F30000460ECCF41380DE850070BE511D018F4F0
:100F40000CD00360E3CF41305B41674B704005D06C
:100F500010F40260DBCF0160D9CF0081007F0895DB
:100F6000600700E07007089512D009F02073F801BF
:100F70000181022B018308950AD029F42095F801FC
:100F800001810223F7CFF801218121830895302FB9
:100F900030740895FCDF89F42A95A1F02A95B1F008
:100FA0002A9519F02A9529F00895F80144A755A724
:100FB0000895F80146A757A708952A9519F02A958C
:100FC00029F00895F80140A751A70895F80142A714
:100FD00053A7089520E431E00CE020D00DE01ED0AE
:100FE0000EE01CD00FE022D020E031E005E21FD05F
:100FF00004E218D000E216D001E214D002E212D0CE
:1010000003E215D005E113D007E111D00AE10ED0BB
:10101000EEE4F6E00081006100831DC007D020E40B
:1010200031E0089503D028E130E0089535CFFEDFA8
:1010300020E033E00895A80101D0ACCF22E000E029
:101040001AE0089520E2FBDF97DF10E005E234DFCD
:10105000F6DF0C94FA0BF3DF0E94DA0BEEE8F6E011
:101060000081026000830091010A087F0360009301
:10107000010A00E010E0DFDF20E2E1DF75DF40E899
:1010800054E86EE170E000E01AE02DDF0FEF1FE79B
:10109000D2CF3B2F2A2EF801022E242F60E070E0E1
:1010A000462F01E010E00E94D400102D102329F0FB
:1010B000DF01A60FB71F50962C936395683080F31D
:1010C00050FB3EF451FB16F4058201C006820182FA
:1010D00001C00282A22DB32F0895AA939A938A93F6
:1010E000FA93EA933A922A921A920A927A936A931C
:1010F0005A934A933A932A931A930A938FB79BB7BA
:10110000ACB7EDEFF8E240815181628100E0403000
:101110005007600719F0FA016CBF1995ACBF9BBF6F
:101120008FBF0991199129913991499159916991EB
:1011300079910990199029903990E991F9918991C3
:101140009991A9911895F9011F73012B0093080D2E
:101150000093080D662331F060E804C0162F102BB1
:101160001093090D8A0141505040012B19F0019153
:101170000023A1F70895212F043030F4183220F411
:101180000FD01081102B10830895212F043038F4D4
:10119000183228F405D0009510811023108308958B
:1011A00005D02770422F01E00C94C700402F50E07B
:1011B00005E010E00E94CC00E0E1FDE0E00FF11F4F
:1011C000022F069506950695E00FF51F08959801E4
:1011D0001AD0F801FA5F12D0332311F00583089575
:1011E00006830895202F0FD01A5FF80110851095FF
:1011F00005D0102309F070C100E008952770422F38
:1012000001E00C94C70006950695069510E045E0B0
:101210000C94D4005B2F2A2FE4EFF6E330E0F8942F
:1012200000911329002311F078941BC0A4E1B9E2C6
:1012300003C0EF5FFF4F3F4F0D910023D1F33BBF42
:10124000169100914800017F102B10934800E8E4AC
:10125000F0E00081016000837894889500810E7F22
:101260000083A22FB52F089500E020E0F0E0E02FEA
:10127000ED5EF64D208303950530C0F301E0009349
:1012800018290895302F212F123070F4412F440F68
:10129000440F400F01E010E00E94D4000095E6E00A
:1012A000FDE0108110231083122F032F0C94BB0834
:1012B0000E945501C801A22F0E94C90644E08C017A
:1012C0000E94DA000E9477061BE003E00E94C50836
:1012D0001BE000E00E94C508AA9519F0AA9521F02C
:1012E00006C01BE000E002C01BE003E0CBDFE3E050
:1012F0000C94630107E00093A2007894B5DF0FB768
:10130000F894E3E1F9E21581139515830FBF0E946C
:10131000F60A0E94EA070E9470130E947C13009153
:101320001229002391F400919300002371F40E948C
:101330008813CBD00130E9F7C8D00230E9F7C5D027
:101340000430E9F7C2D00830E9F70E943E040E9459
:10135000B7030E949A1AD0D00E943C150E9496159D
:10136000002311F40E94981500911129002321F007
:101370000E94A3120023C1F74DDFF6CFBA93AA93C0
:10138000ACE9B4E20D911C911197012B11F10D9173
:10139000015010401C930E93012BD9F400919E2410
:1013A0000A9539F00A9549F00A9559F00A9569F0BD
:1013B00010C022E201EA14E20BC022E203EC14E2C4
:1013C00007C022E205EE14E203C022E207E015E2C4
:1013D00072D07BD01091A024101759F176D00093D1
:1013E000A02400E26FD031F022E201EA14E263D0DF
:1013F00001E05CD001E266D031F022E203EC14E2BD
:101400005AD002E053D002E25DD031F022E205EE84
:1014100014E251D003E04AD003E254D031F022E28A
:1014200007E015E248D004E041D000919F2400235A
:10143000D1F13FD04AE041D011F40E94ED1A39D0E9
:1014400045E03BD011F40E94E90333D04CE251E077
:101450000E94E000412911F40E94F0132AD044E6D2
:101460002CD009F50D911C91012BE9F400919E24DB
:101470000A9539F00A9549F00A9571F00A9579F0C4
:1014800012C00E944C0320E00DC00E94490322E0DC
:10149000102F110F110B06C00E94500302C00E94B2
:1014A000540321E005DFA991B991089500939E248A
:1014B00008950C94C0150C94D81350E00E94E000DD
:1014C000412908958FDE002308950C94BF1301E095
:1014D00000939F2411E008D001E0089510E004D0AB
:1014E00000E000939F24089505E271CE01E000938F
:1014F0001129089500E0FBCF0E9454016097E6EDAA
:10150000F6E330E08E0140E150E00E943F0180E0D0
:10151000E82FF0E034969F0101E00E94A90012E05C
:10152000819FA0E0B9E2A00DB11DFE01202F229500
:101530002F7030E0E20FF31F10811C93FE010F703B
:10154000E00FF31F0081FD0101838395863000F3D6
:101550006096E4E00C946201083029F086D0208186
:10156000202B208306C00BE4009352007BD0086040
:1015700000831FBF08958A932FB7F894822F0A958E
:1015800019F00A9561F02AC01830E6E5F0E0008114
:1015900011F4016001C00E7F0083E8E61CC0E6E59F
:1015A000F0E00081097F0083183021F4008102609F
:1015B00000830FC01F3F21F414D000810460F8CFD6
:1015C000143039F40ED004E0C7DF009156000093C8
:1015D0005600E0E6F0E00081016000838FBF899152
:1015E000089500E807870BEB008B08952497E0E748
:1015F000F0E007E01FEF11930A95E9F724E001E41A
:1016000056D02CE12BD009832DE128D008831981F5
:101610000F3F1F4F21F400E413E208831983088170
:1016200019810A831B830A81009362000B81009356
:10163000630002E091DFE1E5F0E0008101FFFDCF12
:1016400021E000E410E00E94A2001FEF02E093DF1F
:1016500009D00E7F00831FBF2496089530E002E07A
:101660000C94A90002D0008108951FB7F894E0E51A
:10167000F0E008954FB7F894109509D00123008346
:101680004FBF08954FB7F89402D0012BF8CFF0E088
:10169000E02FE059FF4FE7CF063011F428E101C0F9
:1016A00020E0236004E403D010E400E0E3CF10E086
:1016B0000C94A20010E400E0E5DF20E004E410E078
:1016C000F7CF0ED005C012D003C016D001C01ED077
:1016D00045D0189563D0FCCF69D0FACF01D063C054
:1016E00019D0E9E1F9E2089501D05DC013D0E2E23A
:1016F000F9E2089501D057C00DD0EBE2F9E2089568
:1017000005D051C0438154816581089503D0E4E33D
:10171000F9E20895AA939A938A93FA93EA933A92F4
:101720002A921A920A927A936A935A934A933A9314
:101730002A931A930A938FB79BB7ACB70895D0DF5B
:1017400003C0D4DF01C0D8DF01D02EC0468157814D
:1017500060850895DBDFF8CF21D025C0408151811D
:10176000628100E040305007600719F0FA016CBF59
:101770001995ACBF9BBF8FBF0991199129913991E0
:1017800049915991699179910990199029903990CD
:10179000E991F99189919991A9910895BBDFEDE3C0
:1017A000F9E2089503D0AEDFDCDF1895B3DFE3E4A0
:1017B000F9E2089541D048D079F411E003E018D05F
:1017C00014E003E015D00FB7F894E3E1F9E21181DA
:1017D000139511830FBF2BC034D011F412E0EECF5C
:1017E00036D0C9F711E005E003D014E005E0EACFF8
:1017F0000C943A0B21D02FB7F894E3E1F9E2318150
:101800003A9531832FBF20D031F411E003E012D09C
:1018100014E003E00BC015D011F412E0F7CF17D09D
:1018200031F411E005E006D014E005E003D08FBFED
:10183000899108950C94420B8A932FB7F894822FC4
:101840000895003412070895003028E0FBCF0030DF
:101850001A400895DFD00481158108950D01ABE48D
:10186000B9E2ED91FC9140815181FA01628173816D
:10187000460F571FF801608170E001C06081060FBC
:10188000171F0417150738F4F8013181343019F0A7
:101890002317A1F702C000E010E0D00108950D0168
:1018A000980189D011F400E02AC0FD0174D21181A1
:1018B000F80144812417B8F7FD0104831583F8016A
:1018C00042815381040F151F09C0408150E0FD0182
:1018D00064817581640F751F648375831496ED911F
:1018E000FC911597E017F107F0F64181443069F754
:1018F0004281241751F74381341739F701E0CDCFE6
:101900000E945201802F10E03DD211F400E01CC073
:1019100081D094D140805180F2012ED2B9F37AD097
:10192000A481B58105C0EA2FF12F02810E94F21532
:1019300025E08D0193DFD801012BA9F7F201038186
:10194000148125816AD001E0E6E00C9460010E94D8
:101950005201802F17D211F400E0F6CF5BD0448003
:10196000558025E082017ADF2801012B49F418D245
:101970000D911D912C9151D0002371F301E0EDCF19
:10198000E42DF12F24813581138102810E94CF152E
:10199000002339F7E1CF3CD00ED039F080E003C00E
:1019A000082FAEDF839546D1D8F300E000934F298E
:1019B0000D930C9339C1A9E4B9E200914F2900239A
:1019C000089524D011F180E017C0FD01A281B381F8
:1019D00002E0809FA00DB11DFD0102D14485558517
:1019E000668540305040604031F01196FC9104858E
:1019F0001585268512D083950DD0A281B381ED91F6
:101A0000FC9111970481801700F30EC101D0D5CF4E
:101A10000C945401E9E4F9E20895F8012CBF1994FB
:101A200006D1023000E0104009F0089504810E94C0
:101A3000FE1510E0E1E5F9E20083118322E030E0D9
:101A40008F018FD001E0089511D009F04AC083D0F2
:101A5000012BE1F704810C94121608D009F041C063
:101A60007AD0012BE1F704810C940416E0D0012B0D
:101A700008950091502B0F770C94BA150091502BBC
:101A8000002339F00A9551F00A9519F10A9529F1C8
:101A900028C024E030E008E915E21AC029E00CE68D
:101AA00015E240E050E032E0F801E40FF51F6081FC
:101AB000439FF001E65DFA4D6283538343954217DD
:101AC00098F3220F2E5F20932A2530E00AE215E2D8
:101AD000B8CF20E206E715E2E4CF20E100E019E20A
:101AE000E0CF00E0089577D0FD014281238106EF29
:101AF00015E22A9529F02A9541F02A95E9F009C0C6
:101B000032D0208130E02AD01AC02DD0218942174E
:101B100010F000E01DC0F8011ED024E0429F000D2F
:101B2000111D21D02281338119D022E0FD010085D1
:101B3000F185E02F218303C0A1DF002351F354D0AE
:101B4000228533850217130710F40287138701E0FB
:101B5000A991B9910895028113810895F801008136
:101B600011810C94C815F8012081F181E22F0895AC
:101B700032D03AD0012B11F000E0EACF0E94BD151F
:101B80000023D1F3E6EFF5E22BD02189FD0102819C
:101B9000201790F300DFFD01028100934F2920916F
:101BA0004F29222311F401E0E8CFE6EFF5E2D3DF7D
:101BB00034E0239F000D111D045010402BDF0283E1
:101BC0001383A0E0E1D0A01770F710E055D00023F8
:101BD00099F2A395F7CFBA93AA93AEE4BBE2089526
:101BE0000081F181E02F0895FD010681178108959C
:101BF0000FDF1DD00130104011F000E015C0DBDE1A
:101C0000E1F3848117D0C8F7B5D0B9F3FD0116D040
:101C1000E7DF01851285238500DF0093502921E04D
:101C200030E017968D010DDFE4E00C946201EEE4E4
:101C3000FBE2DBCFFD01AAD0801708950281F3817A
:101C4000E02F0281138122E0829F000D111DF80117
:101C50000895AA938A930ADF11F000E00AC0ADDE6E
:101C6000E1F3A48182810A2F4BDE0023B1F3182F08
:101C700003D08991A99108950A2F69CEEEE4FBE281
:101C8000008107FF32C026813781022F032BD9F153
:101C900000810F71F1F41181112329F0165069F0C0
:101CA000125061F016C0223000E0304009F0089573
:101CB00022E030E009E419E20AC015CF213000E04B
:101CC000304009F0089521E030E00FE419E249DFE7
:101CD000B9CE013021F401810A30A9F489CF023054
:101CE00091F40181002379F49BCE0F7101F51181EC
:101CF0001A9589F0125039F0125019F01450B1F0C1
:101D000016C076D009F0EDCE09E31DE020E004878F
:101D100015872687DDCF6CD0B1F71DDF013010406D
:101D200091F778DE00810D7F0083D2CF21CF013083
:101D300021F401810B3039F78CCF023021F701817A
:101D40000A9519F0025011F0DECF7ECE86CE5EDE0F
:101D500011F400E00EC08091522B16D08017C8F706
:101D600009D0B9F31DD0FD0107D099F33DDF2085DF
:101D700054DE5ACF10E005C00185128523854DDE63
:101D8000102F082F8CDD1BCEE9E4F9E204D0F1819D
:101D9000E02F048108950281F381E02F00810895EE
:101DA000E9E4F9E24BDFA081B1810895EEE4FBE2C2
:101DB00000E0028703870487058706870787008B73
:101DC000018B008107FF03C013D009F48ACE009174
:101DD0004E2B007621F452DF002309F033CE009120
:101DE0004E2B0F71013091F7B2DF0023B9F7EECF20
:101DF000068117813CCEBA93AA93D8018A014A8101
:101E00005B816C81EEE4FBE2708177FF19C0707634
:101E100029F471817630A1F434D02FC0703281F46E
:101E20000181025019F00A9541F00AC0A087B187DC
:101E300001E010E00287138720C020873187F8CFA8
:101E40000081007E003299F40181095029F00A9541
:101E500039F00A9541F00BC0FA016CBF19950DC01D
:101E600003810C9309C006811781012B11F000E05A
:101E700004C00281F901008301E0A991B991239680
:101E800008950E945401C8010E942A0CD801199695
:101E9000FD010181013211F000E01FC0EEE4FBE220
:101EA0000381013229F4A087B1870C9110E00AC0A8
:101EB00016961C911697101779F7808791871796B9
:101EC0000D911C91268137812017310710F4A9014B
:101ED00001C0A8014287538701E0E4E00C9462014D
:101EE000E9E0F6E200E00083018301E0028379D0BB
:101EF000002309F42FC00C94670A0C946E0A0EE8B4
:101F00001FE020E02A931A930A934CE056E22AE05D
:101F100036E209E016E20C94FB0E1CC0EEE4FBE294
:101F20000281138100301340A9F406811781043027
:101F3000104081F404ED19E2008711870AED1FE0DB
:101F400020E004871587268704E010E002871387C6
:101F500001E0089500E008950E945401D801009125
:101F60000B26002311F400E022C08FB7F89440E460
:101F700050E020E030E004E519E20E94211B40E43B
:101F800050E09D0104E519E20E94141B01E010E1FC
:101F900020E031D024E539E210E004E80E94281660
:101FA000017011E0012700930B268FBF0127E4E0A9
:101FB0000C946201EEE4FBE20285138504301040CC
:101FC00021F404ED19E20E94A51A0895002341F4BA
:101FD0002034304021F404E919E20E94C11A01D0F2
:101FE000089506EE1FE020E006D024E939E210E073
:101FF00003E00C9428162A931A930A9340E450E0C5
:10200000089501E000930B26089500E000938426D4
:10201000009383260E94200700938826002309F45A
:1020200041C00A95009388260E94760A0023C1F3D6
:10203000C8C000E0009384260C947A0AEEE4FBE228
:102040000081007E003AB1F401810E3F31F4068137
:102050001781013020E0104009F024C00281138173
:10206000012BD9F708E816E20087118701E0028703
:1020700023870895003289F701810F3F71F70681A8
:102080001781012B51F702811381012B31F79CD06D
:1020900000E003AB04AB02E00E947C1601E80E9462
:1020A0007C168FC000E0089500918326002331F054
:1020B00002E014D044E550E160E001D0089502E070
:1020C0000C949E1600918326002339F001E806D077
:1020D00042E650E160E001E8F3DF08950C94041655
:1020E00003E810E120E02A931A930A934FE150E0AD
:1020F00020E536E211E002E07AD021F440E750E139
:1021000060E0DDDF0895002309F049C05DD02F3184
:10211000304049F400811181228133810535134516
:102120002244334421F001E003ABBEDFCBCF058571
:102130000F70058700AD1585011710F4E0D026C09B
:10214000008511852285338577D207850023D9F054
:10215000035099F00F5091F0085089F00A95A9F0BA
:10216000035099F0075081F0035089F0025089F034
:10217000055059F00B5229F00EC0C5C0D9C000E07F
:1021800001C001E01FC10BC16AC11BD119C101E02F
:1021900001C000E09BC1ADD030E205E0FAD1089566
:1021A00013D054855427507849F440A551A562A511
:1021B00073A5401751076207730710F4EED072CF72
:1021C00001C08EDF01E00895E0E5F6E208954BEFEF
:1021D00050E160E06A935A934A93422F50E098018D
:1021E00011E004D011F471D1EBD0089501E80E9400
:1021F0002816002308959A938A93C901002349F46D
:10220000E0D0E2DF1ED2081B190B2040304014D270
:10221000D7D0899199910895BA93AA93A8E7B6E285
:1022200019D09B97012B022B032B49F01C960C9184
:102230001C9707FF02C001E801C002E04FDF1496BF
:1022400009D05D960D931D932D933C9308D0A991D1
:10225000B99108950D911D912D913C91089502E43D
:1022600011E120E02A931A930A934DE050E020E711
:1022700036E210E0BBDF29F44FE251E160E001E813
:102280001FDF08952DCF42E150E020E030E008ED5F
:1022900019E20E94211B00EF0093D8290AE0009365
:1022A000DF2908950E945101602E2901CA01DB0136
:1022B000EADF01E000937C26E8EDF9E26282B38375
:1022C000A4839583868354864586E7E00C945F015A
:1022D000DADF00E000937C2608950BD03AE302E0B9
:1022E00007C007D038E206E003C003D030E004E0C6
:1022F000D9CF40E050E060E070E020E00895F9DFE1
:1023000034E205E0F5CF8A9380916326833108F0AB
:1023100082E107D021F0282F08ED19E29FD08991A2
:10232000089540E8082F10E020E030E039DF61CF69
:102330008A9380916326853208F084E2F2DF39F1D6
:1023400000916026037021F400916126002311F0B2
:1023500024D01DC0B5D00E94320740E150E0980162
:102360000CE916E20E94141B00E012D01089112320
:1023700041F003950031C9F706C020E209D0208B57
:1023800003950031D1F7282F0CE816E267D0C7CFAC
:10239000F0E0E02FE457F94D0895B1DF11C090D07F
:1023A0000E942107002349F0025019F00A9519F004
:1023B00006C08AD005C087D003C003D001C085D035
:1023C0002BCF86CF0E945301802FACEEB9E244E1BF
:1023D00050E020E030E08D010E94211B882331F085
:1023E00040906726FD01389698E005C0409063262E
:1023F000FD01349694E0009161260F730C3111F0C9
:102400000F3351F40CE100830AE0018305E00383FC
:10241000945F11F4C2DF1EC0941508F4492E40E801
:10242000042D81DFB9F08BD011F000E801C000E08D
:10243000882349F0E92FF0E03297FD93EC93119750
:102440000093EF2905C09A959093EC290093EE290B
:10245000242D03D0E5E00C9461018D01B8CEBA9330
:10246000AA9340E808E05FDF51F1A0E0BAE29D01E5
:1024700027D00E942607002329F00250E1F00A9598
:10248000C1F01BC000E022E0FD0104830583268328
:10249000078312962D914C9112971D9112970D90D2
:1024A00011974D932D931D930C92139728E0D5DF30
:1024B00006C009D003C008D001C007D081DFC7CE55
:1024C00000915D2608950DCF08CF0FCF8A93802FFE
:1024D000002339F434D029F00CDF37E207E059D07B
:1024E0002DC0009161260093802600916226009302
:1024F0007F260091632600937E2600916426009338
:102500007D2600916626009382260091672600931F
:1025100081262091822630E0102F00E0110F221F2B
:10252000331F882311F040E801C040E039DE00236A
:1025300029F08093852601E000938426F0CEC0DF49
:102540000E942C0756CE40DE04A9002300E009F4C7
:10255000089504AB058545A556A567A570A921A9D1
:1025600032A915A9112319F00E943A0702C00E944E
:102570004307002329F0025039F00A9519F006C0EC
:1025800020DF05C0A0DF03C09FDF01C09EDF18DF92
:1025900019CE88DE15CF002311F001E001C000E064
:1025A0000093872601E00093862608950E944C013F
:1025B0004A01AC85BD859E8510918626112311F4B4
:1025C00000E030C010E010938626A030B1079107DC
:1025D00021F44BEC52E160E002C0AD01692F002311
:1025E00011F001E801C002E06A935A934A93A401F2
:1025F000FEDD21F401E000938626E2CFA030B0405A
:10260000904071F4009186260023E1F30091872623
:102610000023B1F60AD00091872611E0012702C0FD
:1026200004D001E0EFE00C945A01E0E5F6E209D0B5
:10263000081919092040304000A711A722A733A785
:10264000089500A511A522A533A5089598011BD0D2
:10265000F801FA5F13D0332311F005830895068340
:102660000895202F10D01A5FF8011085109506D01C
:10267000102311F001E0089500E008952770422F23
:1026800001E00C94C70006950695069510E045E01C
:102690000C94D400302F212F123038F41AD000952A
:1026A000E6E0FDE0108110231083122F032F0C941D
:1026B000BB08302F212F123030F40BD0E6E0FDE0C4
:1026C0001081102B1083E5E0FDE00081086000839D
:1026D000ECCF412F440F440F400F01E010E0D8CF62
:1026E0000E944E0629E00AED16E262D010E002E0F8
:1026F000D1DF10E001E0DDCF0E94220810E005E20A
:1027000006D000E412E00E94210210E004E29ECF15
:1027100011E000E0CEDF11E003E0CBDF60E047E056
:1027200050E023EE36E21CE000E80C94A3080E947F
:102730002B0800E412E00E94120211E0E7CF8A9316
:10274000802F00FB16F411E001C010E00CE0DFDF89
:1027500081FB16F411E001C010E00DE0D8DF82FB30
:1027600016F411E001C010E00EE0D1DF83FB16F497
:1027700011E001C010E00FE0CADF899108959A933B
:102780008A9300E214D0802F01E211D0902F02E250
:102790000ED0990F892B000F000F802B03E207D07A
:1027A000000F000F000F082B89919991089559CFC0
:1027B0008A93822F422F50E0980107EB16E20E9485
:1027C000141B8B5F00E206C0F0E0E82FE055F94DE6
:1027D000018383958232C0F300E00093B026CDCF11
:1027E00047E050E021EB36E20091B026200F351F84
:1027F00003ED16E20E94141B60E047E050E023ED79
:1028000036E21CE000E80E94A308E0EBF6E200815B
:1028100003950083053110F000E000830895003A2D
:1028200028E0120721F410E103E00C943A0B003A7F
:102830001A4021F410E105E00E943A0B089530D0CF
:102840000C94620136D0006C0583FC0104810130D8
:1028500011F0033021F4FD010581026003C0FD0188
:1028600005810D7F0583FC010481023011F00330E6
:10287000A1F4A03A08E0B00729F440E453E022E0D4
:1028800000E408C0A03A0AE0B00739F440E453E09D
:1028900022E000E816E00E94490813D021D0CFCFF3
:1028A000FD01048108600483048100610483E4E085
:1028B00008950E945401D801C901B1DFFD010581CD
:1028C000089500E016E32EE631E03A932A931A9336
:1028D0000A93FC0140815181628173818D010895C9
:1028E0000E945401C8010C811D812E813F81000F7F
:1028F000111F221F331F440F551F661F771F13D050
:102900000F5F1F4F2F4F3F4F09D0D80111970B2F4B
:102910000F70FC010783A683E8E092CF36952795D8
:102920001795079508950C941C01F801318135FB2A
:10293000E6F72083218126FBEEF720E42183008146
:102940000895003A28E0120721F410E103E00C9406
:102950003A0B003A1A4021F410E105E00E943A0BCC
:10296000089526970E801F80288439840882198252
:102970002A823B824C8320E02D839E010E942214F8
:102980002696289608950E945001C801D9012A016F
:10299000662477240DC0FD01E60DF71D20818C0112
:1029A000C4DF0FEF400E501E01E0600E00E0701E0D
:1029B000042D052981F700E0E8E00C945E010E94F7
:1029C0005201D801C9012A0109C02FEF8D01ADDFE5
:1029D000FC010193CF010FEF400E501E042D05297D
:1029E000A1F700E0E6E00C94600105D0368308957D
:1029F00002D035830895F9012081422F477001E00C
:102A00000E94C700302F269526952695022F10E0AC
:102A100045E00E94D4001A5FF80108952AE107D02A
:102A20000093FA042BE103D00093FB04089530E0F7
:102A300002E00E94A9000F3F09F40FE1089516D0AB
:102A4000122B21F40DD02A9521831FBF0FD0122302
:102A500021F006D0239521831FBF0093082A0895F3
:102A60001FB7F894E3E1F9E2218108952091082A43
:102A700011E02127102F08958A9300E30E944C0B48
:102A80000FB7F894802F20E030E089016AD2F80176
:102A9000E35BF54D308323952032B8F320E0A901A4
:102AA0000AE010E00E94CC00F801EA55F44DB7D0DE
:102AB00023952830A0F3B2DFE0ECA9D10F600083AA
:102AC0000081006800830081006100830CE01AE24D
:102AD000005C1F4FE6EC00831183E0ECB4D20FEFF3
:102AE0000583E8EC3FD0E0EC00810064008300E067
:102AF0000093082A15D0139510C08A938FB7F894C5
:102B000034D0E0ECF4E0C1D300E0008701870E94FC
:102B10005A0B00E026D004D01A9515830FBF7CC055
:102B20000FB7F894E3E1F9E21581089500E0089504
:102B30008A938FB7F89414D090D300E28FD3E1EC4E
:102B4000F4E010D0E9EC008102600083E8EC008141
:102B500000640083E9EC72D20081006800835CC0ED
:102B600001E06DCF0081016070C2E1ECF4E057D06C
:102B700000E0F7CF0093C30408950091C3040895C3
:102B8000ECE4FBE200811181089500E010E008957B
:102B9000EEE4FBE2008711872287338708950E94C5
:102BA00052012801C90119D0007C11F000E00DC0CC
:102BB0009C0182012AD10CD021F4018107700730D9
:102BC00019F001810062018301E0E6E00C946001EC
:102BD000FD010181007C003C0895CCD0D801F801B2
:102BE000018108959A938A93902F0ED180E0092F46
:102BF000C1D0F8018183899199910895BBD0EFDF0D
:102C000002FB00E000F908951ED021812460218399
:102C100006D0F9D001E001C08FBF899108950081ED
:102C20000E7F13C210D001810B7F018385D0A3D00A
:102C300020FF08C02E7F2083078110852185F801A1
:102C40002CBF1995E7CF8A93802F94D0F80108956F
:102C50000E944B01702EC12E59014A014D845E84A1
:102C60006F846BD0C801072DB8DF007C11F400E041
:102C700040C0AFDF19F0018102FDF9CF0FB7F89422
:102C8000102FFC01008100FF02C01FBFF0CF0160C8
:102C900000831FBFA182B2828382948276DF058384
:102CA0000683478250866186CC2019F4082D0929B5
:102CB00009F411E00081097F110F012B008377FADD
:102CC0001EF400E0FD0110C083DF51F48D01E0D25D
:102CD000A8018401C8D3412919F0FC01A0DFC7CFA6
:102CE00000E0FD010283038306830783072D04D3DD
:102CF00001E0E0E10C9459010E945401802F3AD088
:102D0000D8011AD02C9122602C9335D020FF11C00D
:102D10002E7F2083478150856185AAD351F087FBA0
:102D2000FD011EF42681378102C02281338101E03A
:102D30007BD2E4E00C946201082FCDC20E945201C4
:102D4000802FDA01962F16D02801F6DFF2012181BB
:102D500022FF0BC010D020FF02C000E00AC021609B
:102D60002083A783B087918703C0FD019CBF19957D
:102D700001E02BCFE8C0F8012081089593D00091A5
:102D8000CB0407FF07C000E869D20E94E10C0E9453
:102D9000BE0937C04CD20023A1F538D004FF20C0B3
:102DA00000E15CD281E02FD0082F00682DD0839500
:102DB0008430C8F30E94CB0C00E00093C30420E4ED
:102DC00030E010E022D020E430E010E000E81DD038
:102DD00006E61BE20093502A1093512A8AD111C0B3
:102DE000008106FF06C039D200E0BBDE0E947C13E2
:102DF00008C0008105FF05C000E230D2B1DE0E94AC
:102E000097133AD01895082F77CF62C0EBECF4E017
:102E10000081089547D025D2002369F502E0009390
:102E2000CC040091C504ECE4FAE200950395000F90
:102E3000E01BF040008111810C501A4200541040F8
:102E400043E00E94DA00802F00FB16F400E801C086
:102E500000E08695800F082F8DDF8DDF25FF0BC0EA
:102E60009CD0882311F44DD106C0803811F4EFD0E6
:102E700002C0082F41D2C5CFBCBFABBF9FBF0991D5
:102E800019912991399149915991699179910990B3
:102E9000199029903990E991F99189919991A99185
:102EA000B9910895BA93AA939A938A93FA93EA935D
:102EB0003A922A921A920A927A936A935A934A936E
:102EC0003A932A931A930A939FB7ABB7BCB7089566
:102ED0009A938A93F901137039F01A9539F01A957B
:102EE00039F01A9529F005C090E403C090EC01C0B8
:102EF00090E8709791F0709791F0B09791F0E0544E
:102F0000F04089F0E058F04081F0E050F14079F075
:102F1000EF5FF14071F080E00DC081E00BC082E016
:102F200009C083E007C084E005C085E003C086E0F7
:102F300001C087E01FDF20E0F801218326E0208325
:102F4000982B918358CE6CE47AE2202F2F70220FB9
:102F5000402F440F1ADE001F020F03D0060F171F69
:102F6000089543E00C94D400E8ECF4E016D015D0BA
:102F7000BCD000810260008308DE3ED111D055D064
:102F80000FD0EEE4FBE21487158716871787108BA6
:102F9000118B12871387168B089500810F7D55C002
:102FA00000810F7D008300810F7B4FC0A3D00023E1
:102FB00031F0033011F0043009F42DD19AD0EEE451
:102FC000FAE200811181083050E0104069F548E0D4
:102FD00026E63BE28D010E94141B87D0C3DD25D07D
:102FE0002DD0F4E030D02FD00E94D60E002311F463
:102FF000F2D01AC00C91FD0107FF0CC002850F73BF
:1030000011F401E001C000E0078B12D002E0068B52
:103010001ED00AC006811781012B11F4E7D004C02D
:1030200007D001E0068BF2D03ACFECE4FAE2089543
:1030300000E0028B038B048B058B089500810160F7
:103040000083E8EC0895008100620083089552D067
:10305000033011F44DD048C0FD01228533854489E9
:1030600055898901041B150B402F412B09F5078950
:10307000002311F4C8D038C002891389020F131F2E
:10308000268137810217130720F0EFD111F07ED08F
:1030900029F400E00093652BB1D024C07AD02285BA
:1030A0001385022F2F7311F421E001C020E0278B3C
:1030B000013420E0120710F000E410E0E6E5FAE247
:1030C00000831183FD012085318544895589240FB2
:1030D000351FE8E5FAE220833183FD019A01E5D14D
:1030E000248B358B02D094D0DACEE4E5FAE2089551
:1030F00092D03ACFBA93AA93AEE4BBE20091642B8C
:1031000008950E945401F8DF043011F4F1DF3DC04E
:10311000EEE4FAE280819181FD016489758922855E
:1031200033858B01080F191F2017310718F4C901C7
:10313000861B970BAC0126E63BE2008511858FD1FB
:10314000FD0104891589080F191F048B158B803424
:10315000904031F4A8D1468157812417350750F0AB
:103160000287138782D121F011D011F434D00DC021
:103170003DD00BC0228533852017310729F475D146
:10318000A9F304D099F305D041D0D3CD4DD000237D
:103190000895FD010489158986D1228B338B00E0C7
:1031A0004ACF00914C2A05FD08C00091642B0130E4
:1031B00009F41CC0043009F411D008950091542A78
:1031C00005FD08C00091642B023009F41CC00330D7
:1031D00009F404D0089505E00093642BE5E5FAE2D4
:1031E00002D0EDE4FAE2008104602FCF03E0009307
:1031F000642B00E001D00CC001D077CFE6E5FAE205
:1032000000830183089504E00093642BECE4FAE268
:1032100000810D7F1ACFEEE4FBE24485558566857B
:1032200027D109F001D00895FA016CBF1994EEDDA1
:1032300002FF07C0F093CA040091542A06FDB1DFD3
:1032400022C0008101FF08C002E008D000914C2A92
:1032500006FFF6CFB3DFF4CF69CC00E40093CA04D5
:1032600008950091CC0400FF61CC01E00093CC04F0
:10327000DCDE0BD03ADF09D001E0F0DFD6DE0081E2
:103280000F7E008393DE01E0089500810F77DDCE8D
:10329000A6DC07700A9571F00A9571F00A9571F035
:1032A0000A9571F00A9571F00A9579F00A9581F006
:1032B00008E001C000E16ACC00E2FDCF00E4FBCFF2
:1032C00000E8F9CF00E011E0089500E012E0089571
:1032D0000FEF13E0089522E93BE2402F50E04F70DA
:1032E000440F602F660F51DC001F400F0AE00E9460
:1032F000CC00020F131F08950E944D01A02E1DDD6A
:10330000D8010A2D37DDC801C3DF4801A7FAFC0147
:10331000D6F506811781FD019FD0C7D0258336835E
:10332000438054800581132F0415150521F1401A9F
:10333000530A04E0501610F0ADD09FD00C9101FF5D
:1033400007C0A40182018FD0412911F411E001C00E
:1033500010E00C910D7F110F012B96D04282538209
:10336000FD010181128178D0020F131FFC0104833B
:1033700015834EDF6EC00C9101FF5EC00D7F84D0BF
:1033800002830383F6CF428053800C9102FF12C068
:10339000FD0103811481A40166D0642F26EB3BE27A
:1033A0000A2D10E07CD0462FEA2F01811281658121
:1033B000768155D0FD0105811681040D151D05830B
:1033C00016830381148148D00217130710F4058374
:1033D0001683FC01268137814216530669F5FD01EB
:1033E000658076806016710639F128014618570805
:1033F00004E0501608F04ED040D010E0FC011283DB
:1034000013834814590468F40C9104600C9326EB60
:103410003BE20A2D0F7043D0248335838682978246
:10342000A8CFFD0101811281060D171DFC01048347
:103430001583468257829DCF0C9100FF0AC00E7FF4
:103440000C93FD0147815085618512D011F004D0A5
:10345000EBDEEBE00C945B01258136810895060FCD
:10346000171F0C94141B0C94E00047855089618948
:1034700000E04030500760070895A40182010E94D7
:10348000E0004018510808950C9300E0FC01068309
:10349000078308950FEF402E03E0502E089546E075
:1034A0000E94D40002C022893389200F311F089561
:1034B000302F212F123070F4412F440F440F400F52
:1034C00001E010E00E94D4000095E6E0FDE01081EC
:1034D00010231083122F032F0C94BB080E94550158
:1034E000C801A22F0E94C90644E08C010E94DA00A4
:1034F0000E9477061BE003E00E94C5081BE000E085
:103500000E94C508AA9519F0AA9521F006C01BE0F3
:1035100000E002C01BE003E0CBDFE3E00C946301BA
:10352000003214F00FE103C0003E0CF400EE0093F3
:10353000070D089500919300E6EFFCE20F5B018711
:1035400008EC028702E403870895F80120812535FD
:10355000B9F421812A3AA1F42281253589F4038125
:103560000A3A71F40E947D150E94E30301E00CBF4A
:10357000EBEEF6E2008111812281F8012CBF199552
:103580000895BA93AA93D8010C910E949F13FD014C
:10359000008DC6DFFD01118D00E00E941B08FD01BA
:1035A000018100FF07C024E18D010E5F1F4F0E94C3
:1035B000D8130CD0FD01018101FF05C020E0068970
:1035C00017898CDF03D0A991B991089508E813E118
:1035D000ECE9F4E2008311830895BA93AA93A8EF6B
:1035E000BCE20E944C030D931C9313960E94490366
:1035F0000093F72C0E9454030D931C9313970E9481
:1036000050030D931C9315970E94BF130093F62C43
:1036100000919E240093FE2C8D010E94AC0FD3CF0D
:103620000C94B30001E00895BD01D801F90104C074
:1036300021912D9341505040242F252BC9F7DB01B8
:103640000895F80103C0219341505040342F352B89
:10365000D1F7089520E008D0E9F708953BBF2791FE
:103660003BB702D0D9F708952D9301501040202F79
:10367000212B089506EE402E06E3502E00E0602E2A
:10368000F201362D6BBE07911691F201EE5FFF4FEE
:103690003F4F3BBFA791B691F201362DEC5FFF4F34
:1036A0003F4F3BBF479157916691242F252B262BE7
:1036B00021F0FA01362FD2DF01C0CCDF07E0400E47
:1036C00000E0501E601EA201662D443F564360403C
:1036D000B8F20895FFCF30313233343536373839C8
:1036E0004142434445464606F026000000EE0200F3
:0A36F00024FC3600000E060C040056
:1036FC0000000000000000000000000000000000BE
:10370C00000002010300CF0FC00FB10FA10F900FEB
:10371C007E0F6C0F590F460F310F1C0F060FEF0E5B
:10372C00D80EBF0EA60E8C0E710E550E390E1C0E39
:10373C00FE0DDF0DBF0D9E0D7D0D5B0D380D140DB7
:10374C00F00CCB0CA50C7E0C570C2F0C070CDE0BC5
:10375C00B50B8B0B600B350B0A0BDE0AB30A860A12
:10376C005A0A2D0A000AD409A7097A094D09200919
:10377C00F308C60899081A2241543435444258209B
:10378C004461746120466C61736822000000000083
:10379C00004C494748542053454E534F522020204B
:1037AC0020200000000000000000000000000000CD
:1037BC0000000054454D504552415455524520533C
:1037CC00454E534F522020202020000000000000C6
:1037DC000000000000504F54454E54494F4D455485
:1037EC00455220494E5055542020202020000000E6
:1037FC000000000000000045585445524E414C203A
:10380C00564F4C544147452020202000000000001A
:10381C000000000000000000009500030000000004
:10382C00000000000000000000000000000000008C
:10383C00000000000000000000000000000000007C
:10384C00000000000000000000000000000000006C
:10385C0000000000000000000000000041544D4535
:10386C004C2041565200584D4547412D423120586D
:10387C00706C61696E656420436F6D706F736974F1
:10388C00652064656D6F00000403090412010002D9
:10389C0000000040EB033424000101020301090283
:1038AC0040000201008032090400000208065000AA
:1038BC0007058102400000070502024000000904D0
:1038CC000100020300000009211101000122350052
:1038DC000705840340001407050303400014412628
:1038EC00FA25AE25EE259C25F225700F007D0F00E4
:1038FC007F0F008D0F0000000000000006FFFF0985
:10390C0001A10109020903150026FF007508954065
:10391C00810209040905150026FF007508954091E0
:10392C000209060907150026FF0075089504B10267
:10393C00C00510001910001E1000521000000000ED
:10394C00000000000000000000000000000000006B
:10395C00000000000000000000000000000000005B
:10396C00555342530000000000000000000000000E
:10397C00000000000000010000181818008003026D
:10398C001F00000041544D454C2020200000000039
:10399C00000000000000000000000000312E30305C
:1039AC00002020202020200000000000000000004B
:1039BC0000000000000000000000000000000000FB
:1039CC0000000020202020202020584D4547412079
:0E39DC004231005245562045525200FE000175
:0400000300000000F9
:00000001FF
