:12006200AF827D527E031DBDFF011EED4E70F7DFF1227F
:03000000020006F5
:03005F0002000399
:0300030002007484
:200074007580FF7590FF75A0FF75B0FF75E8FF75826412006275800075900075A00075B0DD
:0C0094000075E80075826412006280D4E0
:06003500E478FFF6D8FD9F
:200013007900E94400601B7A009000A4780175A000E493F2A308B8000205A0D9F4DAF275EF
:02003300A0FF2C
:20003B007800E84400600A790175A000E4F309D8FC7800E84400600C7900900001E4F0A3C3
:04005B00D8FCD9FAFA
:0D0006007581071200A0E58260030200036F
:0400A0007582002243
:00000001FF
