:08000000803102288731FD2F39
:100F44008731B9278731A52F803102284F019601B7
:100F54009701980199019A019B010800623051019F
:100F64008D008F01910102309300920108008731B6
:100F7400A82787318731C32787318731B027873145
:100F8400080040019A0199019601970198010730E0
:100F94009500FF309100FF3092000F3093000F3026
:100FA4009400FF307E01D900FF30CE00FF30C30033
:100FB4000730E400FF30B800DA01E501C401B901EB
:100FC400CF01E601BA01C501D001DB01FF30BB004E
:100FD400FF30C600FF30D100FF30DC000730E700EF
:100FE400FF30BC00FF30C700FF30D200FF30DD000F
:0C0FF4000F30E800080040018731A22FF8
:020000040001F9
:08000000FF3FFF3FFF3FFF3F00
:0A000E00EF3FFF3F9F3FFF3FFF3F22
:00000001FF
